:100000000000022091010000BD010000BD010000C0
:10001000BD010000BD010000BD010000BD010000E8
:10002000BD010000BD010000BD010000BD010000D8
:10003000BD010000BD010000BD010000752E0000E3
:10004000BD010000BD010000BD010000BD010000B8
:10005000BD010000BD010000BD010000BD010000A8
:10006000BD010000BD010000BD010000BD01000098
:10007000BD010000BD010000BD010000BD01000088
:10008000BD010000BD010000BD010000BD01000078
:10009000BD010000BD010000BD010000BD01000068
:1000A000BD010000BD010000BD010000BD01000058
:1000B000BD010000BD010000BD010000BD01000048
:1000C000BD010000BD010000BD010000BD01000038
:1000D000BD010000BD010000BD01000010B5054CD0
:1000E000237833B9044B13B10448AFF300800123E4
:1000F000237010BDF0010020000000000CB80000CB
:1001000008B5034B1BB103490348AFF3008008BD9A
:1001100000000000F40100200CB80000154B002B7B
:1001200008BF134B9D46A3F5803A00218B460F462E
:100130001348144A121A07F0E8FA0F4B002B00D0AC
:1001400098470E4B002B00D0984700200021040058
:100150000D000D48002802D00C48AFF3008007F0D6
:100160005FFA2000290004F00BFB07F045FA00BFFE
:100170000000080000000220000000000000000055
:10018000F0010020400200200000000000000000FC
:10019000064880470649074A074B9A42BEBF51F8B6
:1001A000040B42F8040BF8E7FFF7B8FF3503000033
:1001B0002CBF000000000020F0010020FEE700BF7F
:1001C00080B400AF034BDB6C1B0EDBB21846BD46A0
:1001D00080BC7047B081E00F80B582B000AF00F006
:1001E0001FF87860074B5B6803F00F037A6822FA08
:1001F00003F37B60044A7B6813607B68184608370A
:10020000BD4680BD00800C400800002080B400AFD7
:10021000024B1846BD4680BC704700BF006CDC0234
:1002200080B582B000AF334BDB6A03F47053B3F593
:10023000805F0AD0B3F5005F03D0B3F5006F08D03C
:100240000BE02D4B1B687B6047E04FF400437B6065
:1002500043E02A4B1B687B603FE0264BDB6803F4DE
:10026000E063B3F5007F1BD0B3F5007F05D8002B0A
:1002700024D0B3F5807F16D02BE0B3F5806F09D082
:10028000B3F5A06F03D0B3F5407F06D021E01C4B3F
:100290007B6021E01B4B7B601EE01B4B7B601BE007
:1002A0001A4B7B6018E0FFF78BFF0346122B02D935
:1002B000174B7B6010E0174B7B600DE0FFF780FF72
:1002C0000346122B02D9144B7B6005E0134B7B6075
:1002D00002E000237B6000BF00BF064B1B689B0B46
:1002E00003F0070301337A68B2FBF3F318460837CB
:1002F000BD4680BD00800C400400002000000020AE
:10030000003FAB01406F4001809FD500C0D8A700DF
:1003100040B56400C0CF6A00804F120040420F0019
:1003200080B400AF024B1B681846BD4680BC7047C6
:100330000000002080B400AF00BFBD4680BC704705
:1003400080B400AF4FF400431846BD4680BC7047F0
:1003500080B400AF4FF47A731846BD4680BC704736
:1003600080B400AF024B1B681846BD4680BC704786
:100370000400002080B582B000AF3A4B5B6C394A74
:1003800043F400535364384BD3F82031364A43F0DA
:100390000403C2F82031344BD3F82031324A23F41D
:1003A0004073C2F82031304BD3F8B8302E4A23F4D2
:1003B0007063C2F8B8302C4BD3F8B8302A4A43F4F3
:1003C0008063C2F8B830274B10221A6200BF254B59
:1003D000DB6A03F02003002BF9D0244B1B68234A6F
:1003E00043F001031360214BDB68204A43F0807324
:1003F000D3601F4B1F4A1A601F4800F06DFC034674
:1004000003F5D52303F2FC437B607B68DB081B4AC2
:10041000A2FB03239B0A3B60194A3B68013B136123
:10042000174B0222C3F8F020154B4FF48072C3F82B
:1004300004234FF06043134AC3F8B02F4FF06043DA
:10044000114AC3F8802E4FF06043D3F8003E4FF0BE
:10045000604243F00103C2F8003E0123184608370A
:10046000BD4680BD00800C4000600040F0ED00E023
:10047000001000E0FF13014006000E001791650216
:10048000000004E055CEACC50900010080B500AF06
:10049000FFF770FF00BF80BD80B487B000AFF86089
:1004A000B9607A60FB6803F10473DA00BB68134437
:1004B0009B007B617B697A681A6000BF1C37BD4670
:1004C00080BC704780B485B000AF786039607B68CD
:1004D00003F10473DA003B6813449B00FB60FB6884
:1004E0001B6818461437BD4680BC704780B485B081
:1004F00000AF78607B68002B03D07B68B3F5004FBA
:1005000000BF7B68B3FA83F3DBB2C3F11F03FB6068
:10051000FB6818461437BD4680BC704780B400AFF6
:10052000034BDB6C1B0EDBB21846BD4680BC70472C
:10053000B081E00F80B400AF034BDB6C1B0CDBB26F
:100540001846BD4680BC7047B081E00F80B582B0D0
:1005500000AFFFF7EFFF03464A2B04D0792B02D000
:10056000482B23D024E0154B1B699BB21B029BB286
:1005700003F47C53FB80114B9B691B091B0103F0A7
:10058000F0039AB2FB881343FB800C4BDB691B0919
:1005900003F00F039AB2FB881343FB80FB88B3F58B
:1005A000017F01D3064B04E0064B02E0054B00E05F
:1005B000002318460837BD4680BD00BFD0FF0FE0BE
:1005C00000366E010048E80180B584B000AF786065
:1005D0000123FB60FFF7BAFF02467B68934204D811
:1005E0000023FB600023BB600BE0FFF7AFFF034677
:1005F0005B007A689A4202D80123BB6001E00223C3
:10060000BB60FA681E210848FFF746FF064B5B688F
:1006100023F48072BB681B02034913434B6000BF85
:100620001037BD4680BD00BF00800C4080B582B051
:1006300000AF1E210448FFF745FF78607B6818462D
:100640000837BD4680BD00BF00800C4080B582B039
:1006500000AF214B5B6903F4E063B3F5007F1CD06E
:10066000B3F5007F05D8002B25D0B3F5807F1FD0D0
:100670002AE0B3F5C06F24D0B3F5E06F1ED0B3F518
:10068000407F21D1FFF74AFF0346122B02D9134BBB
:100690007B601CE0124B7B6019E0FFF73FFF0346D5
:1006A000122B02D90F4B7B6011E00F4B7B600EE0E9
:1006B0000E4B7B600BE00E4B7B6008E00D4B7B60CC
:1006C00005E00D4B7B6002E000237B6000BF7B6890
:1006D00018460837BD4680BD00800C40804F120090
:1006E00040420F0040B56400C0CF6A00C0D8A700E8
:1006F000809FD500406F4001003FAB0180B582B0C4
:1007000000AF0D4800F0D4FB0346FB70FB78072BCD
:1007100005D0092B07D1FFF783FD786006E0FFF7CE
:1007200095FF786002E000237B6000BF7B6818467D
:100730000837BD4680BD00BF06000E0080B485B0FE
:1007400000AF78603960204B5B6803F00703FB6003
:10075000FB68012B01D9042B02D10023FB7202E0BC
:100760000123FB7200BF7B68184A934207D9FB7ACA
:10077000002B01D0052300E00423FB6016E07B681A
:10078000124A93420BD87B68114A934207D9FB7AED
:10079000002B01D0032300E00123FB6006E0FB7A7D
:1007A000002B01D0022300E00023FB60064B5B68B6
:1007B00023F007020449FB6813434B6000BF143762
:1007C000BD4680BC704700BF00000C400048E801F7
:1007D0000024F40080B582B000AF0E4BDB6B002B21
:1007E00014BF01230023FB710A4B41F67132DA6317
:1007F000FFF70CFD034600211846FFF79FFFFB792A
:10080000002B02D0034B0022DA6300BF0837BD463D
:1008100080BD00BF00000C4080B584B000AF7860A0
:1008200039600C4BDB6B002B14BF01230023FB73DF
:10083000084B41F67132DA6339687868FFF77EFF5A
:10084000FB7B002B02D0034B0022DA6300BF103782
:10085000BD4680BD00000C4090B585B000AF78600B
:100860000023BB607B68344A934203D0334A9342EF
:1008700000D000E000BF786800F01AFB0346FB6080
:100880007B682D4A934203D02C4A934206D00CE059
:100890002B4B9B6A03F00303FB6006E0284B9B6A2B
:1008A0009B0803F00303FB6000BFFB68032B39D8F0
:1008B00001A252F823F000BFEF080000C9080000B1
:1008C000D1080000D9080000FFF73AFDB8602DE01C
:1008D000FFF746FDB86029E0FFF77EFC0446FFF70E
:1008E000A5FE0346013324FA03F3BB601EE0002398
:1008F000BB607B68104A934203D07B680F4A9342E7
:1009000013D10F4B9A6A7B680B498B4201D110239C
:1009100000E0142322FA03F3002B06D0FFF718FDA2
:10092000B86002E00023BB6000E000BFBB6818466F
:100930001437BD4690BD00BF02001E00030020001A
:1009400000800C4080B483B000AF7860094B5B6DD1
:1009500003F00103002B07D100BF064B1A6D7B6823
:100960001340002BF9D100E000BF0C37BD4680BC1E
:10097000704700BF00800C4080B582B000AF1048C7
:1009800000F096FA0346FB70FB78032B07D0092B87
:1009900009D0022B0BD1FFF7E3FC78600AE0FFF7E8
:1009A000CFFC786006E0FFF73BFC786002E00023B4
:1009B0007B6000BF7B6818460837BD4680BD00BF1E
:1009C0000723260080B400AF00BFBD4680BC70473F
:1009D00080B400AF00BFBD4680BC704790B585B005
:1009E00000AF786039607B681B0903F00F03FB6080
:1009F000FB68013B082B00F2F48001A252F823F0BF
:100A0000250A0000E30B0000E30B0000590A000078
:100A1000E30B0000E30B0000810A0000CD0A000098
:100A20008F0B00003B68002B02D03B68082B00BFF7
:100A3000FFF7D0FE6D4B1B6823F4E0323B68013BAF
:100A40009B036A4913430B60FFF7C6FBB8600021A4
:100A5000B868FFF7E1FEC5E03B68002B03D03B68B8
:100A6000B3F5007F00BF3868FFF740FD38605F4B8B
:100A70009B6823F00F025D493B6813438B60B1E034
:100A80003B68002B03D03B68B3F5007F00BFFFF746
:100A9000A1FEFFF7C5FB02463B68B2FBF3F3184625
:100AA000FFF792FD3868FFF721FD38604F4B5B6818
:100AB00023F00F024D493B6813434B60FFF78CFB5B
:100AC000B8600021B868FFF7A7FE8BE07B68484A52
:100AD00093421ED0464A934203D8464A934207D0D7
:100AE00054E0454A934225D0444A93423ED04DE0DB
:100AF0000420FFF727FF3868FFF7F8FC38603B4B0E
:100B00009B6E23F0F0023B681B01384913438B6650
:100B10003CE00420FFF716FF3868FFF7E7FC386079
:100B2000324B9B6E23F470623B681B022F491343C8
:100B30008B662BE03B680F2B02D93B68802B00BFF4
:100B40000420FFF7FFFE3868FFF7D0FC3860274B22
:100B50009B6E23F440541020FFF7C8FC02463B680C
:100B60009B1A1B03214A234393660FE00420FFF7DF
:100B7000E9FE3868FFF7BAFC38601C4B9B6E23F027
:100B800003021A493B6813438B6600BF2AE07B6867
:100B90001B4A934203D01B4A934210D020E04020CE
:100BA000FFF7D0FE3868FFF7A1FC38600F4B1B6FD2
:100BB00023F003020D493B6813430B6710E040200C
:100BC000FFF7C0FE3868FFF791FC3860074B1B6FDA
:100BD00023F030023B681B01044913430B6700BF3D
:100BE00000E000BF00BF1437BD4690BD00800C4040
:100BF000802616008016120080002A0080062E0033
:100C000090071A0090171C0080B586B000AF78607E
:100C10000B46FB7000233B617B681B0A03F00F034C
:100C2000013B092B45D801A252F823F0690C0000C2
:100C30006F0C0000550C0000B30C0000B30C00005A
:100C4000750C00007F0C0000B30C0000B30C00001A
:100C5000890C0000194B7B61194800F03DF80346F0
:100C60001846FFF7B1FC12E0164B7B610FE0164B04
:100C70007B610CE0154B7B6101233B6107E0144B6A
:100C80007B6110233B6102E0124B7B6100BF7B68FC
:100C90001B0B03F01F03FB603B69002B02D038697C
:100CA000FFF750FEFB781A46F9687869FFF7F4FB06
:100CB00000E000BF1837BD4680BD00BF40800C403B
:100CC0000043020008800C4044800C4058800C40D7
:100CD00060800C4078800C4090B585B000AF7860A3
:100CE0007B6803F47813B3F5D01F00F0AB80B3F545
:100CF000D01F1AD8B3F5602F00F0BF80B3F5602F76
:100D000008D8B3F5003F3CD0B3F5802F2DD0002B91
:100D100027D0BEE0B3F5901F3CD0B3F5B01F47D04D
:100D2000B3F5801F00F0AD80B3E0B3F5181F00F0FD
:100D3000AC80B3F5181F0AD8B3F5F01F25D0B3F572
:100D4000001F7AD0B3F5E01F00F08980A1E0B3F571
:100D5000301F4ED0B3F5381F62D0B3F5281F35D001
:100D600097E0FFF75DFAF86096E0FFF759FAF86050
:100D70004C4B9B6803F00F03FA6822FA03F3FB6005
:100D80008AE0FFF729FAF86086E04748FFF764FD3C
:100D9000F86081E04448FFF75FFDF860414B9B6ECF
:100DA0001B0903F00F03FA6822FA03F3FB6073E0F8
:100DB0003D48FFF751FDF8603A4B9B6E1B0A03F06C
:100DC0000F03FA6822FA03F3FB6065E03648FFF789
:100DD00043FDF860334B9B6E1B0B03F003041020A4
:100DE000FFF784FB03462344FA6822FA03F3FB600F
:100DF00052E02D48FFF730FDF8602A4B9B6E1B0B2D
:100E000003F00303FA6822FA03F3FB60254BDB6F60
:100E100003F007030133FA68B2FBF3F3FB603BE036
:100E20002148FFF719FDF8601E4B9B6E03F003038A
:100E3000FA6822FA03F3FB602EE01C48FFF70CFD72
:100E4000F86029E01948FFF707FDF860154B1B6FA4
:100E500003F00303FA6822FA03F3FB601CE0134873
:100E6000FFF7FAFCF8600F4B1B6F1B0903F003033D
:100E7000FA6822FA03F3FB600EE0FFF73FFCF8602C
:100E80000AE0FFF7E3FBF86006E0FFF775FDF860A6
:100E900002E00023FB6000BFFB6818461437BD4624
:100EA00090BD00BF00800C4002001E000300200027
:100EB00080B485B000AF78600123FB737B6803F0DA
:100EC0000F03BB60BB68013B062B00F2938001A2BD
:100ED00052F823F0F10E0000270F0000630F00000E
:100EE000F50F0000F50F00009F0F0000C10F00007C
:100EF000454BDB6A03F47053B3F5805F09D0B3F55B
:100F0000005F03D0B3F5006F06D008E00223FB7347
:100F100008E00323FB7305E00423FB7302E00523D1
:100F2000FB7300BF69E0384B9B6A03F00303022B9D
:100F300006D0032B07D0012B08D10323FB730FE04E
:100F40000223FB730CE00623FB7309E02E4B9B6A24
:100F500003F48033002B02D00A23FB7300E000BFB0
:100F60004BE0294B9B6A03F00C03082B06D00C2B9B
:100F700007D0042B08D10323FB730FE00223FB737C
:100F80000CE00623FB7309E01F4B9B6A03F48013FC
:100F9000002B02D00A23FB7300E000BF2DE01A4BA8
:100FA0001B6803F08053002B03D0B3F1805F03D0A4
:100FB00023E00723FB7302E00923FB7300BF1CE05F
:100FC000114BDB6A03F46033B3F5803F08D0B3F50F
:100FD000003F08D0B3F5004F08D10923FB7308E0A8
:100FE0000223FB7305E00323FB7302E00123FB7381
:100FF00000BF02E00023FB7300BFFB7B18461437E1
:10100000BD4680BC704700BF00800C4080B588B0F2
:1010100000AF78600B46FB700323FB610323FB7674
:1010200000233B617B6803F00F03FB60FB68013B1F
:10103000062B00F22C8101A252F823F05910000077
:1010400037110000371100008F1200008F120000CE
:10105000FD11000027120000FB78023B082B00F274
:10106000188101A252F823F08D10000097100000A3
:10107000A1100000E3100000931200009312000082
:101080009312000093120000931200000423FB61EE
:101090000023FB7631E00323FB610123FB762CE088
:1010A0000223FB610223FB76FFF750FA034601336C
:1010B0001846FFF789FAFFF733F90246784B9A4250
:1010C00006D9784B1B68774A43F06003136014E03D
:1010D000744B1B6823F06003724A43F020031360D3
:1010E0000BE00123FB610323FB76FFF72FFA034696
:1010F00001331846FFF768FA00BFFB7E0122012189
:10110000184600F0D5F8FFF765FBFFF75BFC654A72
:10111000FB6953626448FFF7DFFD03461846FFF79B
:1011200053FAFFF759F8B8600021B868FFF774FB6D
:10113000FFF74EFCB0E0FB78013B092B00F2AB80DF
:1011400001A252F823F000BF7111000077110000D6
:1011500087110000971200009712000097110000FD
:10116000971200009712000097120000B3110000C0
:1011700000237B6122E001220121002000F098F889
:1011800002237B611AE001220121012000F090F886
:1011900001237B6112E0FFF71FF8B860B868FFF722
:1011A00013FA012204214148FFF776F903237B61FA
:1011B00004E000237B6101233B6100BFFB68022B3D
:1011C0000DD1384B9B6A23F4803323F003037A69F3
:1011D0001A433B691B04334913438B625CE0314B78
:1011E0009B6A23F4801323F00C037A6992001A435C
:1011F0003B691B052B4913438B624DE0FB78072BA2
:1012000002D0092B07D047E0264B1B68254A23F064
:101210008053136006E0234B1B68224A43F080533F
:10122000136000BF38E0FB78032B14D0092B22D0C9
:10123000022B00D030E001220121002000F038F81C
:10124000184B40225A6200BF164BDB6A03F480330E
:10125000002BF9D01AE001220121012000F028F82A
:10126000104B60225A6200BF0E4BDB6A03F400335E
:10127000002BF9D00AE00B4B20225A6200BF094B29
:10128000DB6A03F40043002BF9D000BF04E000BF89
:1012900002E000BF00E000BF2037BD4680BD00BFB8
:1012A0000048E80100800C400043020040800C40F0
:1012B00080B586B000AF0346FB710B46BB71134689
:1012C0007B71FB79042B48D801A252F823F000BFB0
:1012D0001D1300000F130000F3120000E5120000C0
:1012E0000113000001233B610223FB6001237B61AA
:1012F0001DE004233B610823FB6003237B6116E0B0
:1013000010233B612023FB6005237B610FE040231A
:101310003B618023FB6007237B6108E04FF480730F
:101320003B614FF40073FB6009237B6100BFBB7915
:10133000002B0ED00B4A3B6913627B79002B0DD03A
:1013400000BF79690848FFF7BDF80346002BF8D0C5
:1013500004E0044AFB68136200E000BF1837BD4692
:1013600080BD00BF00800C402C800C4080B483B056
:1013700000AF03463960FB71FB79002B0DD0FB7980
:10138000012B0AD0FB79022B07D0FB79032B04D069
:10139000FB79042B01D0FB79052B01223B6802FA73
:1013A00003F30749FA7918461346DB0013449B0000
:1013B0000B441433186000BF0C37BD4680BC704727
:1013C0000060004080B483B000AF03463960FB7119
:1013D000FB79002B0DD0FB79012B0AD0FB79022B76
:1013E00007D0FB79032B04D0FB79042B01D0FB79C8
:1013F000052B01223B6802FA03F30749FA791846E4
:101400001346DB0013449B000B441033186000BFED
:101410000C37BD4680BC70470060004080B584B08A
:1014200000AFB9607B600346FB731346BB73FB7B65
:10143000002B0DD0FB7B012B0AD0FB7B022B07D0AE
:10144000FB7B032B04D0FB7B042B01D0FB7B052B08
:10145000BB7B002B0DD07B68002B05D0FB7BB968D4
:101460001846FFF7AFFF04E0FB7BB9681846FFF7AB
:101470007DFFBB68072B20D82D49FA7B1346DB0084
:1014800013449B000B4404331A68BB689B000F2174
:1014900001FA03F3DB431340B97BBA68920001FA07
:1014A00002F211462248FA7B19431346DB0013442B
:1014B0009B0003440433196025E01D49FA7B134661
:1014C000DB0013449B000B4408331A68BB6803F12C
:1014D0008043083B9B000F2101FA03F3DB4302EA40
:1014E0000301BA7BBB6803F18043083B9B0002FA0F
:1014F00003F30F48FA7B19431346DB0013449B00A8
:10150000034408331960BB7B002B0DD17B68002B93
:1015100005D0FB7BB9681846FFF754FF04E0FB7B5E
:10152000B9681846FFF722FF00BF1037BD4680BDDF
:101530000060004080B483B000AF786039607B68A1
:101540001B6C03F00103002B07D100BF7B685A6CB2
:101550003B681340002BF9D100E000BF0C37BD46BB
:1015600080BC704780B586B000AFF860B9607A6023
:10157000BB68002B10D1FB68164A934202D1164B70
:101580007B6105E0FB68154A93421ED1144B7B61D9
:101590007869FFF7A1FBB860BB685A017B68B2FBB2
:1015A000F3F33B613B69203B3B613B69DB003B6103
:1015B0003A6947F6F87313403B610421F868FFF776
:1015C000B9FFFB683A69DA6000E000BF1837BD4632
:1015D00080BD00BF0040084090071A00004408404A
:1015E00090171C0080B584B000AF78600B46FB708C
:1015F0007B68104A934202D07B680F4A934200BF37
:10160000FB78DB43FB60FB6803F00503FB60FB68D2
:101610005B00FB60FB78FA681343FB60022178688B
:10162000FFF788FF7B68FA685A6000BF1037BD4635
:1016300080BD00BF004008400044084080B483B033
:1016400000AF78600B46FB70FB78002B08D000BF22
:101650007B685B6C002BFBD17B6801221A6402E083
:101660007B6800221A6400BF0C37BD4680BC7047FF
:1016700080B582B000AF786039607B681A4A9342C7
:1016800002D07B68194A934200BF02217868FFF7B5
:1016900051FF7B680A225A6001217868FFF7CEFF6C
:1016A0007B681B6823F01C033A68127B13433A687B
:1016B000527B13433A68927B1A437B681A603B68FB
:1016C00059683B689B681A467868FFF74BFF3B6890
:1016D0001B781A467B685A6000217868FFF7AEFFD6
:1016E00000BF0837BD4680BD0040084000440840A8
:1016F00080B582B000AF78600B46FB7000BF7B689E
:101700009B6803F01003002BF9D040217868FFF7A5
:1017100011FFFA787B689A6200BF0837BD4680BD2A
:1017200080B485B000AF78601A4B5B69DBB29B0078
:10173000DBB203F03C03FB73164B1B699B09DBB266
:1017400003F00303DAB2FB7B1343FB737B68FA7B82
:101750009A70104B1B69DBB203F03F03DAB27B686F
:101760005A700C4B9B691B09DBB21B01FB73094BC5
:10177000DB691B09DBB203F00F03DAB2FB7B134317
:10178000FB737B68FA7B1A7000BF1437BD4680BCC0
:10179000704700BFD0FF0FE080B483B000AF786027
:1017A0007B680D4A93420BD07B680C4A934207D06A
:1017B0007B680B4A934203D07B680A4A934201D16B
:1017C000012300E0002303F00103DBB218460C37CD
:1017D000BD4680BC704700BF0000014000040140CE
:1017E00000080140000C014080B584B000AF786073
:1017F00039607868FFF7D0FF0023FB603B681B78F7
:1018000083F00103DBB2002B02D07B6802225A6016
:101810007B6800225A623B689B781A063B68DB783B
:101820001B041A433B689B799B021A433B68DB7994
:101830001B0213433A68127A13433A685278002A1B
:1018400001D0402200E0002213433A68527A002A75
:1018500001D0802200E0002213433A68927A002AE5
:1018600001D0202200E0002213433A68D27A002AF5
:1018700001D0102200E0002213433A68127B002AB4
:1018800001D0082200E000221343FB603B681B7973
:10189000002B02D04FF4005200E000223B685B793D
:1018A000002B02D04FF0805300E000231343FA686E
:1018B0001343FB607B68FA681A603B681B78002B57
:1018C00002D07B6801225A6000BF1037BD4680BD40
:1018D00080B586B000AFF860B9607A60FB70BB6815
:1018E000002B03D12448FFF7F7F9B860FB78202BD1
:1018F0000CD0202B02DC002B05D03AE0402B08D086
:10190000602B09D035E010237B6108E008237B6160
:1019100005E006237B6102E004237B6100BFBB6816
:101920009A007B69796801FB03F35B0813443B6110
:101930007B697A6802FB03F33A69B2FBF3F33B611C
:101940003B69043B3B613B699B013B613A690B4B43
:1019500013403B61FB681B6823F06002FB681A6060
:10196000FB681A68FB781A43FB681A60FB683A69DF
:101970005A611837BD4680BD40810400C0FF1F007A
:1019800080B485B000AF78600B46FB707B68134A6B
:1019900093420ED07B68124A93420AD07B68114A68
:1019A000934206D07B68104A934202D07B680F4A6C
:1019B000934200BFFB78DB43FB60FB6803F0050349
:1019C000FB60FB685A007B68DA60FA787B68DA6053
:1019D00000BF1437BD4680BC704700BF00C0004048
:1019E00000C4004000C8004000E0004000E40040A7
:1019F00080B582B000AF786039607B68294A934235
:101A00000ED07B68284A93420AD07B68274A9342CB
:101A100006D07B68264A934202D07B68254A9342CF
:101A200000BF786800F048F83B689B7C002B05D02D
:101A30007B681B6843F080427B681A603B68DB7CF4
:101A4000002B07D03B681B7D43F01003DBB21A4626
:101A50007B689A653B685B7B1A463B681B8A13432D
:101A60003A68D2891A437B685A603B6859683B6878
:101A70009A683B681B7B7868FFF72AFF3B685B7DB1
:101A8000002B05D07B681B6843F480327B681A60AA
:101A90003B681B781A467B68DA6000BF0837BD4692
:101AA00080BD00BF00C0004000C4004000C800402E
:101AB00000E0004000E4004080B483B000AF7860F4
:101AC0007B68244A93420ED07B68234A93420AD013
:101AD0007B68224A934206D07B68214A934202D017
:101AE0007B68204A934200BF7B6840F6AA62DA60B6
:101AF0007B6800221A607B6841F205025A607B68AD
:101B000000229A607B6800225A617B680022DA64B6
:101B10007B6841F6F9729A647B6800225A657B689B
:101B20000C4A934202D17B6800221A657B6800222E
:101B30009A657B68084A934203D07B68074A9342C0
:101B400002D17B680022DA6500BF0C37BD4680BC3D
:101B5000704700BF00C0004000C4004000C8004003
:101B600000E0004000E4004080B483B000AF786043
:101B700000BF7B681B6903F08003002BF9D07B68F2
:101B8000DB69DBB218460C37BD4680BC704780B4B9
:101B900083B000AF78600B46FB7000BF7B681B69A9
:101BA00003F04003002BF9D0FA787B685A6300BF3A
:101BB0000C37BD4680BC704780B483B000AF7860FE
:101BC000002318460C37BD4680BC704780B483B0F4
:101BD00000AF7860FEE780B483B000AF7860396012
:101BE0003B684FF400525A60002318460C37BD463C
:101BF00080BC704780B400AF01231846BD4680BC4E
:101C0000704780B483B000AF7860012318460C376A
:101C1000BD4680BC704780B483B000AF7860396047
:101C20004FF0FF3318460C37BD4680BC704780B478
:101C300085B000AFF860B9607A60002318461437A9
:101C4000BD4680BC704780B586B000AFF860B96013
:101C50007A6000237B610FE000F08EF838613B6909
:101C6000B3F1FF3F0ED0BB685A1CBA603A69D2B2DA
:101C70001A707B6901337B617B685A1E7A60002B86
:101C8000EAD100E000BF7B69002B02DC4FF0FF339C
:101C900000E07B6918461837BD4680BD80B485B02A
:101CA00000AF78600A4B1B68002B02D1084B094A31
:101CB0001A60074B1B68FB60054B1A687B6813446E
:101CC000034A1360FB6818461437BD4680BC704752
:101CD0000C0200204002002080B586B000AFF86002
:101CE000B9607A6000237B6109E0BB685A1CBA6066
:101CF0001B78184600F032F87B6901337B617A6902
:101D00007B689A42F1DB7B6818461837BD4680BD78
:101D100080B483B000AF78604FF06043D3F8803E6A
:101D200003F00103002B13D04FF06043D3F8003EC3
:101D300003F00103002B0BD000E000BF4FF0604325
:101D40001B68002BF9D04FF060437A68D2B21A704A
:101D50007B6818460C37BD4680BC704780B582B0A2
:101D600000AF0346FB71FB791846FFF7D1FF03462E
:101D700018460837BD4680BD80B400AF0023184622
:101D8000BD4680BC704780B500AFFEF77FFB00BF4B
:101D900080BD80B483B000AF786039603B6818467E
:101DA0000C37BD4680BC704780B483B000AF78600C
:101DB000396000BF0C37BD4680BC704790B587B016
:101DC00000AF78601C4B07F108040FCB84E80F00CC
:101DD0007B681A4A1A6001F05BF801211848FEF787
:101DE00013FF4FF416533B610023FB6000233B724B
:101DF0007B681B6807F1080211461846FFF738FC9C
:101E00000023012205210320FFF708FB0123042200
:101E100004210320FFF702FB7B681B6803225A653D
:101E20007B681B6805211846FFF7DCFB7B681846BA
:101E30001C37BD4690BD00BFF4B000000040084014
:101E400090071A0080B584B000AF7860396001F067
:101E50003BF80346BB6001F037F80346FB607B6844
:101E60001B689B6803F02003002B14BF0123002391
:101E7000DBB2002B07D03B6800221A607B681B682E
:101E8000DB69DBB211E0FA68BB68D31A41F2707209
:101E9000934205D93B684FF0FF321A60FE2304E0FD
:101EA00001F012F80346FB60D9E718461037BD462B
:101EB00080BD80B582B000AF78600B46FB707B6858
:101EC0001B68FA7811461846FFF712FC00231846E3
:101ED0000837BD4680BD80B592B000AFF860B960EC
:101EE0007A603B60F86800F0EDF900237B6407F14D
:101EF0001403184605F034F800223968786805F0B4
:101F0000FDF878647B6CB3F1FF3F14BF012300231D
:101F1000DBB2002B25D007F12C007B6C0022796806
:101F200005F07CF907F12C0207F11403114618465D
:101F300005F03DF807F12C03184605F032F807F1DB
:101F400014031946F86800F0E5F9386805F05CF804
:101F500002467B6C13441A460021786805F07EF82F
:101F6000CAE700BF07F11403184605F01AF809E0A4
:101F700007F11403184605F014F8F86800F0AFF9FB
:101F800004F021FEF8684837BD4680BD80B584B0B6
:101F900000AF786039600023FB60386805F034F8E2
:101FA0000246FB68934234BF01230023DBB2002BBF
:101FB00019D0F968386805F029F803461B781946E6
:101FC0007868FFF776FF0346BB60BB68B3F1FF3F5D
:101FD00005D10D4806F098F84FF0FF3310E0FB688C
:101FE0000133FB60D9E7386805F056F80346194617
:101FF000064806F089F80D217868FFF75AFF00239C
:1020000018461037BD4680BD04B1000014B1000071
:102010000EB4B0B5A1B000AF7860002387F87E3071
:1020200007F13403184604F0BCFE07F1340207F14F
:1020300018039D49184605F0BDF807F1340318460A
:1020400004F0B0FE07F198037B6107F130031946F5
:102050007868FFF7F7FE034687F877303B6BB3F1FC
:10206000FF3F03D1012387F87E3032E097F87720D5
:1020700007F118031146184604F0E9FF07F11803A9
:10208000184605F009F803468849184606F00EF987
:102090000346002B14BF01230023DBB2002B03D027
:1020A000002387F87F3014E007F11803184604F086
:1020B000F3FF03467E49184606F0F8F80346002B66
:1020C00014BF01230023DBB2002BBED0012387F80D
:1020D0007F3007F11803184604F0DEFF0346194667
:1020E000744806F011F897F87E30002B02D0724841
:1020F00006F00AF897F87F30002B02D06F4806F000
:1021000003F897F87E30002B03D197F87F30002B2F
:1021100001D000249AE0D7F8940004F06DFF054642
:10212000D7F8940004F06AFF0146252387F837307A
:1021300007F137031A46284600F012F903463B67B9
:102140003B6F002B67D007F1180207F138031146E7
:10215000184604F0FDFF07F16803184604F021FE5D
:1021600007F1680207F150035549184605F022F8B7
:1021700007F1080007F1500307F138027968FFF70B
:10218000AAFE07F15003184604F00BFF07F168039D
:10219000184604F007FE07F13803184604F001FF63
:1021A0000023BB6707F10803184600F0EDF802466C
:1021B000BB6F934234BF01230023DBB2002B21D03D
:1021C00007F10803B96F184600F0F4F80346184603
:1021D00004F062FF0546D7F8940004F05DFF034663
:1021E0007A691946284606F09FF80346FB66FA6EA0
:1021F0003B6F9A4202D10124002504E0BB6F0133FA
:10220000BB67CFE7012507F10803184600F067F820
:10221000012D19D01AE007F11803184604F03CFF0D
:102220000446D7F8940004F037FF034619462046C9
:1022300006F03CF80346002B14BF01230023DBB259
:10224000002B02D0012401E000BF002407F1180395
:10225000184604F0A6FE23461EE007F13403184694
:1022600004F0A0FD04F0AFFC07F15003184604F0A1
:1022700098FEFFE707F16803184604F093FD07F1A5
:102280003803184604F08DFEFFE707F118031846DF
:1022900004F087FE04F097FC18468437BD46BDE87D
:1022A000B04003B0704700BF18B100001CB100007F
:1022B00020B1000028B1000004B1000030B10000DE
:1022C0003CB1000080B582B000AF78607B681846F2
:1022D00000F08EF87B6818460837BD4680BDB0B563
:1022E00082B000AF78607B681C687B685D687B6843
:1022F000184600F0ABF803461A462946204600F07F
:10230000AFF87B68184600F081F87B6818460837FC
:10231000BD46B0BD80B582B000AF786039607B68E3
:102320005A687B689B689A420DD078687B685B68C6
:102330003A68194600F0ACF87B685B6803F1180254
:102340007B685A6008E0786800F0B5F803463A68A0
:102350001946786800F0C0F800BF0837BD4680BD58
:1023600080B584B000AFF860B9607A60786800F03A
:1023700079F903461A46B968F86800F082F903460D
:1023800018461037BD4680BD80B483B000AF78607A
:102390007B685B681A467B681B68D31ADB10044AAB
:1023A00002FB03F318460C37BD4680BC704700BFE4
:1023B000ABAAAAAA80B483B000AF786039607B680A
:1023C00019683A6813465B001344DB000B44184657
:1023D0000C37BD4680BC704780B582B000AF7860D6
:1023E000786800F08CF97B6818460837BD4680BDD8
:1023F00080B582B000AF78607B68184600F06AF95B
:102400007B6818460837BD4680BD000080B582B0A5
:1024100000AF78607B6819687B689B681A467B68A8
:102420001B68D31ADB10084A02FB03F31A467868CC
:1024300000F071F97B681846FFF7CEFF7B681846FD
:102440000837BD4680BD00BFABAAAAAA80B483B03E
:1024500000AF78607B6818460C37BD4680BC70477B
:1024600080B584B000AFF860B9607A60B968F86888
:1024700000F064F900BF1037BD4680BD80B483B062
:1024800000AF78607B6818460C37BD4680BC70474B
:1024900080B584B000AFF860B9607A607868FFF703
:1024A000EDFF03461A46B968F86800F054F900BF1A
:1024B0001037BD4680BD80B584B000AF78607B68C2
:1024C0001A1D07F10C031146184600F065F9FB6868
:1024D00018461037BD4680BDB0B58AB000AFF86071
:1024E000B9607A605D4A0121F86800F064F903463A
:1024F0003B62F86800F0A7F903467B6107F114021C
:1025000007F108031146184600F0AEF90346FB61D7
:10251000FB68396A184600F0C3F90346BB61BB6922
:102520007B62FC68FA6913465B001344DB001A46C1
:10253000BB699D187868FFF7A1FF03461A46294634
:102540002046FFF7A5FF00237B62FB681C6807F1AC
:102550000803184600F0B8F903461D68FB681846E2
:10256000FFF774FF0346BA692946204600F0B6F922
:1025700003467B627B6A18337B6207F108031846C7
:1025800000F0A2F903461C68FB685D68FB6818460A
:10259000FFF75CFF03467A6A2946204600F09EF961
:1025A00003467B62FB681C68FB685D68FB68184635
:1025B000FFF74CFF03461A4629462046FFF750FF17
:1025C000F868FB681968FB689B681A46FB681B681B
:1025D000D31ADB10224A02FB03F31A4600F09BF8E1
:1025E000FB68BA691A60FB687A6A5A603A6A1346ED
:1025F0005B001344DB001A46BB691A44FB689A600F
:1026000029E00346184604F064FA7B6A002B0CD1DB
:10261000F868FA6913465B001344DB001A46BB698D
:102620001344194600F073F909E0FB681846FFF7F8
:102630000DFF03461A46796AB869FFF711FFFB6878
:102640003A6AB969184600F066F804F073FB04F0C2
:102650006AFA04F0B8FA2837BD46B0BD40B10000B0
:10266000ABAAAAAA80B584B000AF786007F10C03CA
:102670007968184600F058F9FB6818461037BD46CF
:1026800080BD80B586B000AFF860B9607A60002385
:102690007B6107F1080207F10C031146184600F0B0
:1026A00051F90346002B10D03B1DF968184600F085
:1026B00070F90346002B02D07B6901337B6107F17F
:1026C0000C03184600F056F9E3E77B691846183703
:1026D000BD4680BD80B582B000AF7860786800F0FC
:1026E0006FF97B6800221A607B6800225A607B6861
:1026F00000229A607B6818460837BD4680BD80B5C9
:1027000082B000AF7860786800F066F97B681846A0
:102710000837BD4680BD80B584B000AFF860B960B1
:102720007A60BB68002B05D0FB687A68B9681846E8
:1027300000F05CF900BF1037BD4680BD80B582B0A7
:1027400000AF786039603968786800F068F900BFD8
:102750000837BD4680BDF0B585B000AFF860B96000
:102760007A607868FFF78AFE0646BD682946182019
:10277000FFF70FFB0446002C0AD03146204604F038
:10278000E7FC05E029462046FFF70EFB04F01BFAA4
:1027900000BF1437BD46F0BD80B483B000AF786091
:1027A00039603B681A687B681A607B6818460C378A
:1027B000BD4680BC704790B587B000AFF860B96087
:1027C0007A60F86800F043F90446F868FFF7DCFD2A
:1027D0000346E21ABB689A4234BF01230023DBB2EE
:1027E000002B03D07B68184604F032FDF868FFF731
:1027F000CBFD0446F868FFF7C7FD03463B6107F1D0
:10280000080207F110031146184600F031F903469B
:102810001B6823447B61F868FFF7B6FD02467B69BD
:10282000934206D3F86800F012F902467B6993429E
:1028300004D9F86800F00BF9034600E07B691846FC
:102840001C37BD4690BD80B584B000AF78607A6813
:1028500007F10C0311461846FFF79EFFFB68184668
:102860001037BD4680BD000090B583B000AF7860E2
:102870003960786800F028F803461B681C46386801
:1028800000F022F803461B68E31ADB10034A02FB40
:1028900003F318460C37BD4690BD00BFABAAAAAAE9
:1028A00080B582B000AF786039603B68002B06D0FD
:1028B0007B683968184600F0EEF8034600E0002314
:1028C00018460837BD4680BD80B483B000AF78603D
:1028D0007B6818460C37BD4680BC704790B585B004
:1028E00000AFF860B9607A603B60F86800F0E2F829
:1028F0000446B86800F0DEF801463B687A68204676
:1029000000F0E7F8034618461437BD4690BD80B581
:1029100082B000AF786039603968786800F0EAF812
:1029200000BF0837BD4680BD80B483B000AF78607B
:1029300039607B683A681A607B6818460C37BD4678
:1029400080BC704790B583B000AF7860396078681C
:1029500000F0DCF803461C68386800F0D7F803463E
:102960001B689C4214BF01230023DBB218460C37BE
:10297000BD4690BD80B483B000AF78607B681B68B3
:102980005A1C7B681A607B6818460C37BD4680BCB1
:10299000704780B582B000AF786039603B4618461A
:1029A00000F0BEF803461A787B681B681B789A42D1
:1029B0000CBF01230023DBB218460837BD4680BD9B
:1029C00080B582B000AF7860786800F0B4F87B68BA
:1029D00018460837BD4680BD80B483B000AF78602C
:1029E0007B6818460C37BD4680BC704780B584B004
:1029F00000AFF860B9607A607A68B968F86800F08A
:102A0000A4F800BF1037BD4680BD80B483B000AFCE
:102A100078607B6818460C37BD4680BC704780B52F
:102A200082B000AF786039607A683B689A420AD019
:102A30007868FFF7EAFF0346184600F093F87B68D2
:102A400018337B60F0E700BF0837BD4680BD80B516
:102A500082B000AF78607B68184600F09AF80346B1
:102A6000184600F08AF8034618460837BD4680BD70
:102A700080B483B000AF786039607B681A683B68C7
:102A80001B689A4201D23B6800E07B6818460C370D
:102A9000BD4680BC704780B582B000AF78603960B9
:102AA00000223968786800F07EF803461846083737
:102AB000BD4680BD80B584B000AF786007F10C03DF
:102AC0007968184600F090F8FB6818461037BD4644
:102AD00080BD80B584B000AFF860B9607A603B60BB
:102AE0007A68B968F86800F08DF803461846103720
:102AF000BD4680BD80B582B000AF7860396038686F
:102B000004F04FFA00BF0837BD4680BD80B483B0E3
:102B100000AF78607B6818460C37BD4680BC7047B4
:102B200080B483B000AF78607B681B6818460C37B0
:102B3000BD4680BC704780B483B000AF78607B68CE
:102B400018460C37BD4680BC704780B584B000AFD6
:102B5000F860B9607A60B86803F0B7FC00BF10375E
:102B6000BD4680BD80B582B000AF7860786804F063
:102B700018FA00BF0837BD4680BD80B582B000AFEF
:102B80007860786800F050F8034618460837BD466C
:102B900080BD80B483B000AF78607B6818460C3786
:102BA000BD4680BC704780B584B000AFF860B960A6
:102BB0007A60F86800F038F80246BB6893428CBF30
:102BC00001230023DBB2002B01D004F03BFBBA68E9
:102BD00013465B001344DB00184603F065FC034614
:102BE00018461037BD4680BD80B483B000AF786012
:102BF00039607B683A681A607B6818460C37BD46B6
:102C000080BC704780B586B000AFF860B9607A606C
:102C10000123FB757A68B968F86800F011F803467B
:102C200018461837BD4680BD80B483B000AF7860C9
:102C3000024B18460C37BD4680BC7047AAAAAA0AA8
:102C400090B587B000AFF860B9607A607B687B614F
:102C500007F1080207F10C031146184600F02EF8A0
:102C60000346002B16D07869FFF7CFFE044607F124
:102C70000C03184600F043F803461946204600F0BE
:102C800053F807F10C03184600F029F87B69183354
:102C90007B61DDE77B690DE00346184603F019FF11
:102CA00079697868FFF74AFD04F044F803F03BFFC8
:102CB00003F089FF18461C37BD4690BD80B582B031
:102CC00000AF786039603968786800F046F80346EC
:102CD00083F00103DBB218460837BD4680BD80B4DF
:102CE00083B000AF78607B681B6803F118027B68D3
:102CF0001A607B6818460C37BD4680BC704780B4AC
:102D000083B000AF78607B681B6818460C37BD46FF
:102D100080BC704780B483B000AF78607B68184691
:102D20000C37BD4680BC704790B583B000AF78606B
:102D300039603868FFF7EEFF04467B6819461820B3
:102D4000FFF727F80346002B03D02146184604F06E
:102D50000EF900BF0C37BD4690BD90B583B000AFF3
:102D600078603960786800F00EF80446386800F042
:102D70000AF803469C420CBF01230023DBB218462D
:102D80000C37BD4690BD80B483B000AF78607B68DF
:102D90001B6818460C37BD4680BC704780B483B0B2
:102DA00000AF03463960FB7197F90730002B0CDB4D
:102DB0003B68DBB20E4A97F9071008465B01D9B2AF
:102DC00013180A4683F800230CE03B68DAB209497D
:102DD00097F90730DBB203F00F03043B5201D2B284
:102DE0000B441A7600BF0C37BD4680BC704700BF4D
:102DF00000E100E000ED00E080B582B000AF786057
:102E00007B68013BB3F1807F01D301230FE00A4AC5
:102E10007B68013B536007214FF0FF30FFF7BEFF97
:102E2000054B00229A60044B07221A6000231846C3
:102E30000837BD4680BD00BF10E000E080B485B01B
:102E400000AF78600A4B1B68FB60094B1A68FB688F
:102E5000D31A7A689A428CBF01230023DBB2002B7D
:102E600000D0F2E700BF1437BD4680BC704700BFFA
:102E70001002002080B400AF044B1B680133034AEA
:102E8000136000BFBD4680BC704700BF1002002029
:102E900080B500AF0A48FDF71FFF0246094BA3FBB0
:102EA00002239B091846FFF7A7FF0346002B14BF18
:102EB00001230023DBB2002B00D000BE00BF80BD89
:102EC00070000200D34D621080B400AF024B1B684B
:102ED0001846BD4680BC70471002002080B483B005
:102EE00000AF78607B680B4A93420BD07B680A4A3C
:102EF000934207D07B68094A934203D07B68084A13
:102F0000934201D1012300E0002318460C37BD464F
:102F100080BC7047000001400004014000080140EF
:102F2000000C014080B582B000AF78600B46FB70AA
:102F30007868FFF7D3FFFB78002B03D07B68012272
:102F40005A6002E07B6802225A6000BF0837BD4623
:102F500080BD0000B0B588B000AF78607B680833F2
:102F6000184600F0C6F91F4B07F108041D460FCDA7
:102F70000FC495E8030084E803007B681A4A1A60CE
:102F80007B681A4A5A6001211948FDF73DFE01216C
:102F90001848FDF739FE7B681B6807F108021146E7
:102FA0001846FEF725FD0023012201210420FEF72B
:102FB00035FA0123042200210420FEF72FFA7B6852
:102FC0001B6840F203125A657B681B68052118468E
:102FD000FEF7D6FC786800F00FF87B6818462037BB
:102FE000BD46B0BD5CB1000000E000400000014003
:102FF000003204000052040080B586B000AF786053
:1030000007F1080300221A605A609A601A730123BC
:103010003B7200233B720023FB7400233B740123AB
:10302000BB720023FB727B685B6807F108021146E4
:103030001846FEF7D9FB00BF1837BD4680BD90B5D6
:10304000ADF5077D02AF07F10C042060084611467C
:103050003A1D136007F10B0302461A7007F10A03C9
:103060000A461A7007F1140318464FF4FA731A4609
:10307000002104F04AFB07F10C031B6803F1080070
:1030800007F10A031C7807F10B031A7807F1140102
:10309000D7F8203201933B1D1B680093234600F0B4
:1030A00032F90346C7F80C3207F1140107F10C039B
:1030B000D7F80C22186800F0FDF80346C7F808326C
:1030C000D7F80832B3F1FF3F02D06FF0010301E0FF
:1030D0004FF0FF33184607F50577BD4690BD000059
:1030E00080B5ADF5047D00AF3B1D18603B4619600F
:1030F00007F1080318464FF4FA731A46002104F04A
:1031000004FB0023C7F80C32002387F80B3200239E
:1031100087F80A323B1D1B685B6800225A623B1D20
:103120001B681B681B6903F08003002B14BF01237D
:103130000023DBB2002B3AD097F80B3283F0010367
:10314000DBB2002B0FD03B1D1B685B6801211846CA
:10315000FFF7E8FE3B1D1B685B6800225A620123F3
:1031600087F80B3211E03B1D1B685B685B6A43F21A
:10317000AF62934294BF01230023DBB2002B04D043
:103180003B1D1B685B6800225A623B1D1B681B6865
:10319000DB69D9B207F10802D7F80C3213440A46AA
:1031A0001A70D7F80C320133C7F80C32B7E797F82A
:1031B0000B32002B09D03B1D1B685B685B6A43F236
:1031C000B062934201D9012300E00023002BA6D076
:1031D000012387F80A3200BF3B1D1B685B68002192
:1031E0001846FFF79FFED7F80C32013B07F10802A3
:1031F000D35CA7F80232D7F80C32023B07F1080281
:10320000D35CA7F80032B7F802321B021AB2B7F942
:10321000003213431BB2A7F8FE313B1D1B6803F1BC
:103220000800D7F80C329A1E07F10803194600F07F
:10323000BBF80346A7F8FC31B7F8FE21B7F8FC311C
:103240009A4205D0002387F80A32194804F05CFF3F
:1032500097F80A32002B24D0D7F80C32042B20D94F
:103260000223C7F80432D7F80C32023BD7F8042205
:103270009A4212D2D7F80432023B3A4612681344FB
:1032800007F10801D7F804220A4412781A70D7F817
:1032900004320133C7F80432E5E7D7F80C32043BB7
:1032A00001E06FF00103184607F50477BD4680BDC5
:1032B00074B1000080B586B000AFF860B9607A6084
:1032C00000237B617A697B689A420CD2FB6818689C
:1032D000BA687B6913441B781946FEF758FC7B6972
:1032E00001337B61EEE74FF0FF3318461837BD46D8
:1032F00080BD80B483B000AF78607B6818460C371F
:10330000BD4680BC704780B588B000AFF860B9603A
:1033100011461A460B46FB711346BB710023FB6135
:10332000BA68FB691344FA791A70FB690133FB61CF
:10333000BA68FB691344BA791A70FB690133FB61FF
:103340000023BB61BA69FB6A9A420ED2BA6ABB69B2
:103350001A44B968FB690B4412781A70FB6901338F
:10336000FB61BB690133BB61ECE7FA69B968F868D6
:1033700000F01AF80346FB82BA68FB691344FA8A24
:10338000D2B21A70FB690133FB61FB8A1912BA6869
:10339000FB691344CAB21A70FB690133FB61FB6914
:1033A00018462037BD4680BD80B489B000AFF860B4
:1033B000B9607A604FF6FF73FB830023BB61BA6983
:1033C0007B689A4227D2BA68BB6913441B789AB2C9
:1033D000FB8B5340FB8308237B617B69002B16D05A
:1033E000FB8B03F00103002B0AD0FB8B5B10FB83EC
:1033F000FB8B83F4BF4383F07E03DB43FB8302E05C
:10340000FB8B5B10FB837B69013B7B61E5E7BB6961
:103410000133BB61D3E7FB8B18462437BD4680BC24
:103420007047000090B599B000AF78607B6818468F
:10343000FEF7C4FC7C6807F12403184603F0B1FCD6
:1034400007F1240207F10C034F49184603F0B2FEBE
:1034500007F10C0319462046FEF798FD07F10C030F
:10346000184603F09EFD07F12403184603F09AFC6A
:1034700041F28830FFF7E2FC786800F08BF878685A
:1034800000F04AF9786800F0ADF9034683F00103D3
:10349000DBB2002B04D04FF4FA60FFF7CFFCF1E76A
:1034A0004FF47A70FFF7CAFC7C6807F140031846B6
:1034B00003F077FC07F1400207F12803334918466F
:1034C00003F078FE07F1280319462046FEF75EFD5B
:1034D00007F12803184603F064FD07F1400318467E
:1034E00003F060FC7C6807F15C03184603F059FCAC
:1034F00007F15C0207F144032549184603F05AFE20
:1035000007F1440319462046FEF782FD07F1440304
:10351000184603F046FD07F15C03184603F042FC31
:103520004FF47A70FFF78AFC786800F0C5F97B6881
:1035300026E007F10C03184603F033FDFFE707F11F
:103540002403184603F02EFC03F03DFB07F128038B
:10355000184603F026FDFFE707F14003184603F085
:1035600021FC03F030FB07F14403184603F019FD7A
:10357000FFE707F15C03184603F014FC03F023FB9C
:1035800018466437BD4690BD8CB1000094B1000070
:10359000A4B1000090B59FB000AF78607C6807F1DF
:1035A0002003184603F0FDFB07F1200207F1080392
:1035B0005649184603F0FEFD07F108031946204658
:1035C000FEF7E4FC07F10803184603F0EAFC07F1F4
:1035D0002003184603F0E6FB7C6807F13C0318461D
:1035E00003F0DFFB07F13C0207F1240348491846CA
:1035F00003F0E0FD07F1240319462046FEF708FD1D
:1036000007F12403184603F0CCFC07F13C031846ED
:1036100003F0C8FB4FF47A70FFF710FC7C6807F1E9
:103620005803184603F0BDFB07F1580207F14003A9
:103630003849184603F0BEFD07F1400319462046FD
:10364000FEF7A4FC07F14003184603F0AAFC07F1BB
:103650005803184603F0A6FB7C6807F1740318466C
:1036600003F09FFB07F1740207F15C032849184639
:1036700003F0A0FD07F15C0319462046FEF7C8FCE5
:1036800007F15C03184603F08CFC07F1740318463D
:1036900003F088FB4FF47A70FFF7D0FB33E007F1BB
:1036A0000803184603F07DFCFFE707F120031846E6
:1036B00003F078FB03F087FA07F12403184603F0C0
:1036C00070FCFFE707F13C03184603F06BFB03F0C7
:1036D0007AFA07F14003184603F063FCFFE707F1AD
:1036E0005803184603F05EFB03F06DFA07F15C0324
:1036F000184603F056FCFFE707F17403184603F081
:1037000051FB03F060FA7C37BD4690BDA8B10000C4
:10371000A4B10000B4B1000090B591B000AF7860E2
:103720007C6807F12003184603F03BFB07F12002F9
:1037300007F108032949184603F03CFD07F1080387
:1037400019462046FEF722FC07F10803184603F04D
:1037500028FC07F12003184603F024FB7C6807F1DE
:103760003C03184603F01DFB07F13C0207F124035C
:103770001B49184603F01EFD07F124031946204695
:10378000FEF746FC07F12403184603F00AFC07F194
:103790003C03184603F006FB4FF47A70FFF74EFB2C
:1037A00019E007F10803184603F0FBFBFFE707F1F8
:1037B0002003184603F0F6FA03F005FA07F1240394
:1037C000184603F0EEFBFFE707F13C03184603F051
:1037D000E9FA03F0F8F94437BD4690BDD0B10000D6
:1037E000A4B1000090B591B000AF78607C6807F19B
:1037F0002003184603F0D5FA07F1200207F1080369
:103800002B49184603F0D6FC07F108031946204659
:10381000FEF7BCFB07F10803184603F0C2FB07F1F3
:103820002003184603F0BEFA7C6807F13C031846F3
:1038300003F0B7FA07F13C0207F124031D491846CB
:1038400003F0B8FC07F1240319462046FEF7E0FB1D
:1038500003461C4607F12403184603F0A2FB07F1B8
:103860003C03184603F09EFA002C01D001231BE014
:10387000002319E007F10803184603F092FBFFE765
:1038800007F12003184603F08DFA03F09CF907F1C5
:103890002403184603F085FBFFE707F13C031846B5
:1038A00003F080FA03F08FF918464437BD4690BD07
:1038B000E4B10000F0B1000090B591B000AF7860C5
:1038C0007C6807F12003184603F06BFA07F1200229
:1038D00007F108032A49184603F06CFC07F10803B6
:1038E00019462046FEF752FB07F10803184603F07D
:1038F00058FB07F12003184603F054FA7C6807F1DF
:103900003C03184603F04DFA07F13C0207F124038B
:103910001C49184603F04EFC7B681A1D07F124036E
:1039200019462046FEF774FB07F12403184603F0FE
:1039300038FB07F13C03184603F034FA4FF47A7071
:10394000FFF77CFA19E007F10803184603F029FB9A
:10395000FFE707F12003184603F024FA03F033F9D8
:1039600007F12403184603F01CFBFFE707F13C03B3
:10397000184603F017FA03F026F94437BD4690BD08
:10398000FCB1000018B2000090B5ADF2544D04AF88
:103990003B1D18603B46196007F5FE7318464FF44F
:1039A000FA731A46002103F0B0FE07F10803184627
:1039B0004FF4FA731A46002103F0A7FE3B4618683D
:1039C00003F06AFBC7F834043B46186803F01AFB9F
:1039D0000346C7F8F4330023C7F83C340023C7F884
:1039E0003834D7F8F433D7F83C249A4219D207F187
:1039F0000802D7F83834D018D7F83424D7F83C3434
:103A000013441B781A464A4904F01EFCD7F83C348C
:103A10000133C7F83C34D7F838340233C7F83834A8
:103A2000DFE73B1D1B685C683B46186803F0EAFA59
:103A3000024607F5FE7007F108030393029240F275
:103A4000D24301933B4B009323463B4A4FF4FA7118
:103A500004F0C6FB3B1D1C6807F58263184603F0A3
:103A6000A0F907F5826207F5FE7107F57E73184627
:103A700003F0A0FB07F57E7319462046FEF786FA91
:103A800007F57E73184603F08CFA07F58263184633
:103A900003F088F93B1D1C6807F22C43184603F01D
:103AA00080F907F22C4207F214432449184603F028
:103AB00081FB07F57D7307F57C7207F21441204600
:103AC000FEF7A6FA0346C7F8303407F21443184647
:103AD00003F067FA07F22C43184603F063F9D7F8AE
:103AE0003034002B1ED14FF47A70FFF7A7F9B1E7FD
:103AF00007F57E73184603F054FAFFE707F5826373
:103B0000184603F04FF903F05EF807F21443184625
:103B100003F047FAFFE707F22C43184603F042F997
:103B200003F051F800BF07F24447BD4690BD00BF07
:103B30001CB2000040B2000024B2000050B20000ED
:103B400080B483B000AF78607B681B6818460C3780
:103B5000BD4680BC704780B483B000AF78607B689E
:103B60005B6818460C37BD4680BC704780B483B094
:103B700000AF78607B689B6818460C37BD4680BCF8
:103B8000704780B5ADF5027D02AF3B1D1860002384
:103B900087F8FC31362387F8FD31002387F8FE31A2
:103BA000002387F8FF313B1D1B6803F10C0007F56C
:103BB000FE7204230093134606226121FFF73FFAA9
:103BC0003B1D1B680C3307F1080211461846FFF72E
:103BD00087FA0123184607F50077BD4680BD80B5FA
:103BE000ADF5027D02AF3B1D1860002387F8FC3164
:103BF000272387F8FD31002387F8FE31012387F85A
:103C0000FF313B1D1B6803F10C0007F5FE72042316
:103C10000093134603226121FFF711FA3B1D1B6835
:103C20000C3307F1080211461846FFF759FA07F15D
:103C300008035B781B021AB207F108039B781BB2DA
:103C400013431BB29BB2184607F50077BD4680BDF3
:103C500080B5ADF5067D02AF3B1D186007F114037A
:103C600018464FF4FA731A46002103F04EFD07F18F
:103C7000100300221A6007F10C0300221A6007F1FA
:103C8000080300221A603B1D1868FFF7A8FF0346CF
:103C9000012B14BF01230023DBB2002B01D0002332
:103CA00081E0002387F80832282387F809320023AF
:103CB00087F80A32062387F80B323B1D1B6803F195
:103CC0000C0007F5027204230093134603226121BE
:103CD000FFF7B5F93B1D1B680C3307F114021146C1
:103CE0001846FFF7FDF90346C7F80C3207F1140335
:103CF0005B781A0607F114039B781B041A4307F13B
:103D00001403DB781B02134307F1140212791343E7
:103D10001A4607F110031A6007F114035B791A06BB
:103D200007F114039B791B041A4307F11403DB7991
:103D30001B02134307F11402127A13431A4607F1C8
:103D40000C031A6007F114035B7A1A0607F11403D7
:103D50009B7A1B041A4307F11403DB7A1B021343FB
:103D600007F11402127B13431A4607F108031A6085
:103D70003B1D1B68083307F110010422184603F0AD
:103D8000A0FC3B1D1B6807F108010422184603F044
:103D900098FC3B1D1B68043307F10C0104221846F4
:103DA00003F08FFC0123184607F50477BD4680BD5C
:103DB00080B582B000AF78607B680C331846FFF79F
:103DC000C9F87868FFF7DDFE7868FFF741FF034622
:103DD000012B14BF01230023DBB2002B00D0F3E73B
:103DE0007B6818460837BD4680BD80B483B000AFFD
:103DF00078607B681B6918460C37BD4680BC7047ED
:103E000080B483B000AF78607B689B6818460C373D
:103E1000BD4680BC704780B483B000AF78607B68DB
:103E2000DB6818460C37BD4680BC704780B483B051
:103E300000AF78607B685B6818460C37BD4680BC75
:103E4000704780B483B000AF78607B689B6A184687
:103E50000C37BD4680BC7047B0B5C8B000AF3B1D45
:103E600018603D4B07F584741D460FCD0FC495E8CF
:103E7000030084E8030007F1080318464FF4807339
:103E80001A46002103F041FCFFF702F83B1D1B68B6
:103E9000324A1A604FF4E133C7F810310023C7F8F3
:103EA0000C31002387F8083101212D48FCF7ACFEC6
:103EB0003B1D1B681B6807F5847211461846FDF709
:103EC00097FD0023012201210320FDF7A7FA01231A
:103ED000042200210320FDF7A1FA3B1D1B681B688B
:103EE00040F203125A653B1D1B681B6805211846EA
:103EF000FDF746FD3B1DD321186800F0D3FA07F10A
:103F000008023B1D1146186800F08DF9C820FEF725
:103F100095FF3B1D40F203120021186800F01CFAC7
:103F200007F108023B1D1146186800F07CF9C82013
:103F3000FEF784FF3B1D186800F014F8034683F079
:103F40000103DBB2002B00D0F4E73B1D1B681846D1
:103F500007F59077BD46B0BD58B2000000C40040E0
:103F60000012040080B59CB000AF786007F1300308
:103F70003B220021184603F0C8FB0321786800F0BB
:103F800091FA07F130031946786800F04CF90346BE
:103F9000FB66FB6E0A2B01D80023E6E097F835306C
:103FA0001A0697F836301B041A4397F837301B026D
:103FB000134397F838201343FB6297F839301A06F9
:103FC00097F83A301B041A4397F83B301B0213430F
:103FD00097F83C201343BB6297F83D301A0697F8D8
:103FE0003E301B041A4397F83F301B02134397F8E7
:103FF000402013437B6297F841301A0697F842300D
:104000001B041A4397F843301B02134397F84420CC
:1040100013433B6297F845301A0697F846301B0465
:104020001A4397F847301B02134397F8482013436D
:10403000FB6197F849301A0697F84A301B041A4377
:1040400097F84B301B02134397F84C201343BB6186
:1040500097F84D301A0697F84E301B041A4397F81C
:104060004F301B02134397F8502013437B6197F89E
:1040700051301A0697F852301B041A4397F8533000
:104080001B02134397F8542013433B6197F85530B4
:104090001A0697F856301B041A4397F857301B023C
:1040A000134397F858201343FB6097F859301A06CA
:1040B00097F85A301B041A4397F85B301B021343DE
:1040C00097F85C201343BB607B68043307F12C0135
:1040D0000422184603F0F5FA7B68083307F128013B
:1040E0000422184603F0EDFA7B680C3307F1240133
:1040F0000422184603F0E5FA7B68103307F120012B
:104100000422184603F0DDFA7B68143307F11C0122
:104110000422184603F0D5FA7B68183307F118011A
:104120000422184603F0CDFA7B681C3307F1140112
:104130000422184603F0C5FA7B68203307F110010A
:104140000422184603F0BDFA7B68243307F10C0102
:104150000422184603F0B5FA7B68283307F10801FA
:104160000422184603F0ADFA012318467037BD4605
:1041700080BD80B485B000AFF860B9607A60FB7034
:10418000FB78132B35D0132B02DC112B22D03FE010
:104190007D2B10D07E2B3BD1BA687B6813447D22E7
:1041A0001A707B6801337B60BA687B6813445E22B7
:1041B0001A70022332E0BA687B6813447D221A70B9
:1041C0007B6801337B60BA687B6813445D221A7098
:1041D000022323E0BA687B6813447D221A707B684F
:1041E00001337B60BA687B68134431221A70022362
:1041F00014E0BA687B6813447D221A707B6801332F
:104200007B60BA687B68134433221A70022305E08E
:10421000BA687B681344FA781A7001231846143779
:10422000BD4680BC704780B5C6B000AF3B1D18606E
:104230003B4619600023C7F810313A463B1D116810
:10424000186800F0C1F90346C7F808310023C7F821
:1042500014310023C7F81031D7F81021D7F80831EE
:104260009A4257D23B461A68D7F8103113441B784C
:104270007D2B37D1D7F8103101333A4612681344F9
:104280001B78332B20D0332B02DC312B14D023E0CE
:104290005D2B09D05E2B1FD107F10802D7F814312E
:1042A00013447E221A7017E007F10802D7F8143180
:1042B00013447D221A700FE007F10802D7F8143179
:1042C000134411221A7007E007F10802D7F81431DD
:1042D000134413221A7000BFD7F810310133C7F806
:1042E00010310CE03B461A68D7F8103113441978A6
:1042F00007F10802D7F8143113440A461A70D7F8A8
:1043000014310133C7F81431D7F810310133C7F82D
:104310001031A1E70023C7F80C31D7F80C21D7F8EA
:1043200014319A4211D23B461A68D7F80C31134423
:1043300007F10801D7F80C210A4412781A70D7F84F
:104340000C310133C7F80C31E7E7D7F814311846C0
:1043500007F58C77BD4680BD80B5C4B000AF3B1D6E
:10436000186008461146FB1C02461A703B460A4676
:104370001A8007F1080318464FF480731A4600218B
:1043800003F0C3F90023C7F80C313B461B881B120E
:10439000DBB287F808313B461B88DBB287F809316E
:1043A00007F58472FB1C1978381D13460222006839
:1043B00000F03EF9034687F80B31D7F80C315A1C50
:1043C000C7F80C2107F108027E21D154D7F80C312F
:1043D0005A1CC7F80C2107F108020021D154FB1C1C
:1043E0001B7807F10801381DD7F80C210068FFF78A
:1043F000C0FE0246D7F80C311344C7F80C31D7F889
:104400000C315A1CC7F80C2107F108020221D154C3
:104410003B461B881B12DBB207F10801381DD7F899
:104420000C210068FFF7A5FE0246D7F80C311344B3
:10443000C7F80C313B461B88DBB207F10801381D79
:10444000D7F80C210068FFF794FE0246D7F80C312C
:104450001344C7F80C3197F80B3107F10801381DE8
:10446000D7F80C210068FFF784FE0246D7F80C311C
:104470001344C7F80C3107F10802D7F80C31134484
:104480007E221A70D7F80C319AB207F108013B1D51
:10449000186800F07AF84FF0FF33184607F5887770
:1044A000BD4680BD80B5C4B000AF3B1D18600A4654
:1044B000BB1C1A8007F1080318464FF480731A4694
:1044C000002103F022F90023C7F80C31BB1C1B8824
:1044D000D9B2381D00230022006800F0A9F8034675
:1044E00087F80B31D7F80C315A1CC7F80C2107F1AB
:1044F00008027E21D154D7F80C315A1CC7F80C2180
:1045000007F108020021D154BB1C1B88DBB207F164
:104510000801381DD7F80C210068FFF72AFE024673
:10452000D7F80C311344C7F80C31D7F80C315A1CAA
:10453000C7F80C2107F108020021D15497F80B317C
:1045400007F10801381DD7F80C210068FFF711FEAC
:104550000246D7F80C311344C7F80C3107F10802B2
:10456000D7F80C3113447E221A70D7F80C319AB266
:1045700007F108013B1D186800F007F84FF0FF3302
:10458000184607F58877BD4680BD80B586B000AF78
:10459000F860B9601346FB8000237B61FB887A6971
:1045A0009A420CD8FB681868BA687B6913441B7878
:1045B0001946FDF7ECFA7B6901337B61EEE70123D5
:1045C00018461837BD4680BD90B585B000AF7860FD
:1045D00039600023FB730023BB60BB68FF2B1FD82F
:1045E0007B6819683A68BB68D4180846FDF7BCFABE
:1045F00003462370FB7B002B05D03A68BB6813444D
:104600001B787E2B0BD03A68BB6813441B787E2B3B
:1046100001D10123FB73BB680133BB60DDE700BF41
:10462000BB680133BB60BB6818461437BD4690BDFC
:1046300080B485B000AFF8607B600B46FB72134618
:10464000BB72FA7ABB7A1344FB72BB7A5A1EBA72F7
:10465000002B14BF01230023DBB2002B07D07B68A3
:104660005A1C7A601A78FB7A1344FB72EDE7FB7AE6
:10467000DB43DBB218461437BD4680BC70470000F0
:1046800080B400AF034BDB6C1B0EDBB21846BD469B
:1046900080BC7047B081E00F80B582B000AF0E4B98
:1046A00001221A64FFF7ECFF0346FB713B1D18461D
:1046B000FDF736F8FB790F2B0AD93B79022B07D986
:1046C000064B1B6823F05003044A43F010031360A9
:1046D00000BF0837BD4680BD00000C40C0800C40C4
:1046E00080B483B000AF78607B6823F00043184645
:1046F0000C37BD4680BC704780B500AF01211B4818
:10470000FCF782FA01211120FCF77EFA01211848FA
:10471000FCF77AFA01211548FCF776FA01211548D1
:10472000FCF772FA012201210220FCF7C1FD0122EF
:1047300001210020FCF7BCFD04211120FCF766FCE0
:1047400004210B48FCF762FC02210A48FCF75EFCDE
:1047500004210748FCF742F901210748FCF754FA05
:1047600001210648FCF750FA00BF80BD004302005B
:10477000408104000300200000D2040090071A00CA
:104780002DE9F04FADF53F7D10AFFFF785FFFDF749
:10479000FAFAFFF7B1FFFEF77BFB07F51273184635
:1047A000FFF706FB07F507731846FFF755FB07F5FC
:1047B00005731846FEF736FEFEF786FB0346C7F87C
:1047C000A832FEF781FB0346C7F8A43207F507734A
:1047D0001846FFF7C7FB07F512731846FFF738FABC
:1047E00007F507731846FFF700FB0346D7F8B41226
:1047F000184600F0F7FB03461846FFF771FFC7F8AD
:10480000A00207F507731846FFF7FAFA0346D7F830
:10481000B012184600F0E6FB03461846FFF760FFAB
:10482000C7F89C0207F512731846FFF79FF9034675
:10483000D7F8AC12184600F0D5FB03461846FFF730
:104840004FFFC7F89802D7F8B412D7F8A00200F0CB
:1048500087FD0346BE49184600F0CEFC0346BD491D
:10486000184600F085FE0346002B26D1D7F8B0127B
:10487000D7F89C0200F074FD0346B549184600F0D5
:10488000BBFC0346B349184600F072FE0346002BFA
:1048900013D1D7F8AC12D7F8980200F061FD0346A7
:1048A000AB49184600F0A8FC0346AA49184600F098
:1048B0005FFE0346002B00F0A08007F50773184643
:1048C000FFF7B4FA0346184600F030FB82468B46E9
:1048D00007F507731846FFF793FA0346184600F0EA
:1048E00025FBC7E9060107F507731846FFF793FA9A
:1048F0000346184600F01AFBC7E9040107F50773E1
:104900001846FFF772FA0346184600F00FFBC7E996
:10491000020107F507731846FFF793FA0346184696
:1049200000F004FBC7E9000107F512731846FFF712
:104930001DF90346184600F0F9FA8046894607F546
:1049400012731846FFF707F90346184600F0EEFA0F
:1049500005460E4607F512731846FFF7F1F80346B1
:10496000184600F0E3FA03460C4607F12000CDE9B3
:104970000E34CDE90C56CDE90A89D7E90034CDE9EA
:104980000834D7E90234CDE90634D7E90434CDE957
:104990000434D7E90634CDE90234CDE900AB6E4AE0
:1049A0004FF4FA7103F01CFC07F51E73184602F071
:1049B000F8F907F51E7207F1200107F5187318467C
:1049C00002F0F8FB07F5187207F505731146184653
:1049D000FEF7DAFF07F51873184602F0E2FA07F55A
:1049E0001E73184602F0DEF9FEF76EFA0346C7F8AA
:1049F000A832D7F8A832C7F8A432D7F8A422D7F83B
:104A0000A832D31A554A934240F2AA8007F5077399
:104A10001846FFF70BFA0346184600F087FA82465D
:104A20008B4607F507731846FFF7EAF90346184661
:104A300000F07CFAC7E9060107F507731846FFF78F
:104A4000EAF90346184600F071FAC7E9040107F5D0
:104A500007731846FFF7C9F90346184600F066FACF
:104A6000C7E9020107F507731846FFF7EAF903469D
:104A7000184600F05BFAC7E9000107F51273184603
:104A8000FFF774F80346184600F050FA804689464E
:104A900007F512731846FFF75EF80346184600F054
:104AA00045FA05460E4607F512731846FFF748F813
:104AB0000346184600F03AFA03460C4607F1200078
:104AC000CDE90E34CDE90C56CDE90A89D7E9003499
:104AD000CDE90834D7E90234CDE90634D7E9043406
:104AE000CDE90434D7E90634CDE90234CDE900AB91
:104AF000194A4FF4FA7103F073FB07F52573184652
:104B000002F04FF907F5257207F1200107F51F7331
:104B1000184602F04FFB07F51F7207F505731146A3
:104B20001846FEF731FF07F51F73184602F039FAF1
:104B300007F52573184602F035F9FEF7C5F9034667
:104B4000C7F8A832D7F8A832C7F8A43208E000BFE7
:104B50000000C8420000F04270B20000C027090007
:104B600007F507731846FFF740F90346C7F8B43254
:104B700007F507731846FFF743F90346C7F8B03245
:104B800007F512731846FEF7F1FF0346C7F8AC327B
:104B9000FEF79AF90346C7F8A43207F507731846DB
:104BA000FFF72EF90346184600F0C0F9C7E90601E1
:104BB00007F507731846FFF718F90346184600F083
:104BC000B5F904460D4607F512731846FEF7CEFFF9
:104BD0000346184600F0AAF98046894607F5127385
:104BE0001846FEF7B8FF0346184600F09FF98246C4
:104BF0008B4607F512731846FEF7A2FF03461846C8
:104C000000F094F902460B46CDE90623CDE904AB4A
:104C1000CDE90289CDE90045D7E90623104803F024
:104C200073FA4FF47A70FEF709F9CFE507F51873B8
:104C3000184602F0B6F9FFE707F51E73184602F0B2
:104C4000B1F801F0C0FF07F51F73184602F0A9F98B
:104C5000FFE707F52573184602F0A4F801F0B3FF4B
:104C600098B2000081F0004102E000BF83F00043F1
:104C700030B54FEA41044FEA430594EA050F08BFF7
:104C800090EA020F1FBF54EA000C55EA020C7FEABB
:104C9000645C7FEA655C00F0E2804FEA5454D4EB38
:104CA0005555B8BF6D420CDD2C4480EA020281EA02
:104CB000030382EA000083EA010180EA020281EA3A
:104CC0000303362D88BF30BD11F0004F4FEA01318C
:104CD0004FF4801C4CEA113102D0404261EB41019B
:104CE00013F0004F4FEA03334CEA133302D0524221
:104CF00063EB430394EA050F00F0A780A4F10104DD
:104D0000D5F1200E0DDB02FA0EFC22FA05F2801816
:104D100041F1000103FA0EF2801843FA05F35941FC
:104D20000EE0A5F120050EF1200E012A03FA0EFC7B
:104D300028BF4CF0020C43FA05F3C01851EBE371A5
:104D400001F0004507D54FF0000EDCF1000C7EEBC2
:104D500000006EEB0101B1F5801F1BD3B1F5001F00
:104D60000CD349085FEA30004FEA3C0C04F101041F
:104D70004FEA445212F5800F80F09A80BCF1004F48
:104D800008BF5FEA500C50F1000041EB045141EACA
:104D9000050130BD5FEA4C0C404141EB010111F4CB
:104DA000801FA4F10104E9D191F0000F04BF014676
:104DB0000020B1FA81F308BF2033A3F10B03B3F154
:104DC00020020CDA0C3208DD02F1140CC2F10C02E4
:104DD00001FA0CF021FA02F10CE002F11402D8BF42
:104DE000C2F1200C01FA02F120FA0CFCDCBF41EA0E
:104DF0000C019040E41AA2BF01EB0451294330BDDD
:104E00006FEA04041F3C1CDA0C340EDC04F11404B9
:104E1000C4F1200220FA04F001FA02F340EA030090
:104E200021FA04F345EA030130BDC4F10C04C4F1D6
:104E3000200220FA02F001FA04F340EA03002946B6
:104E400030BD21FA04F0294630BD94F0000F83F400
:104E5000801306BF81F480110134013D4EE77FEAE3
:104E6000645C18BF7FEA655C29D094EA050F08BF2F
:104E700090EA020F05D054EA000C04BF1946104610
:104E800030BD91EA030F1EBF0021002030BD5FEA54
:104E9000545C05D14000494128BF41F0004130BD7C
:104EA00014F580043CBF01F5801130BD01F00045D0
:104EB00045F0FE4141F470014FF0000030BD7FEA43
:104EC000645C1ABF194610467FEA655C1CBF0B463E
:104ED000024650EA013406BF52EA033591EA030F55
:104EE00041F4002130BD00BF90F0000F04BF00214D
:104EF000704730B54FF4806404F132044FF0000580
:104F00004FF0000150E700BF90F0000F04BF0021F8
:104F1000704730B54FF4806404F1320410F000455E
:104F200048BF40424FF000013EE700BF42004FEA59
:104F3000E2014FEA31014FEA02701FBF12F07F43D6
:104F400093F07F4F81F06051704732F07F4208BF8D
:104F5000704793F07F4F04BF41F40021704730B594
:104F60004FF4607401F0004521F000411CE700BFE0
:104F700050EA010208BF704730B54FF000050AE063
:104F800050EA010208BF704730B511F0004502D564
:104F9000404261EB41014FF4806404F132045FEA66
:104FA000915C3FF4D8AE4FF003025FEADC0C18BF0F
:104FB00003325FEADC0C18BF033202EBDC02C2F101
:104FC000200300FA03FC20FA02F001FA03FE40EA93
:104FD0000E0021FA02F11444BDE600BF80F000404B
:104FE00002E000BF81F0004142001FBF5FEA4103C1
:104FF00092EA030F7FEA226C7FEA236C6AD04FEAC1
:105000001262D2EB1363C1BFD21841404840414005
:10501000B8BF5B42192B88BF704710F0004F40F4B7
:10502000000020F07F4018BF404211F0004F41F4D3
:10503000000121F07F4118BF494292EA030F3FD09F
:10504000A2F1010241FA03FC10EB0C00C3F12003B2
:1050500001FA03F100F0004302D5494260EB400041
:10506000B0F5000F13D3B0F1807F06D340084FEAAC
:10507000310102F10102FE2A51D2B1F1004F40EBA1
:10508000C25008BF20F0010040EA03007047490009
:1050900040EB000010F4000FA2F10102EDD1B0FAD4
:1050A00080FCACF1080CB2EB0C0200FA0CF0AABFC9
:1050B00000EBC25052421843BCBFD0401843704767
:1050C00092F0000F81F4000106BF80F4000001326D
:1050D000013BB5E74FEA41037FEA226C18BF7FEA44
:1050E000236C21D092EA030F04D092F0000F08BF86
:1050F0000846704790EA010F1CBF0020704712F06D
:105100007F4F04D1400028BF40F00040704712F1AB
:1051100000723CBF00F50000704700F0004343F010
:10512000FE4040F4000070477FEA226216BF084646
:105130007FEA23630146420206BF5FEA412390EA09
:10514000010F40F4800070474FF0000304E000BFFF
:1051500010F0004348BF40425FEA000C08BF7047B0
:1051600043F0964301464FF000001CE050EA010274
:1051700008BF70474FF000030AE000BF50EA010289
:1051800008BF704711F0004302D5404261EB410176
:105190005FEA010C02BF84460146002043F0B6439B
:1051A00008BFA3F18053A3F50003BCFA8CF2083AC0
:1051B000A3EBC25310DB01FA02FC634400FA02FCC9
:1051C000C2F12002BCF1004F20FA02F243EB0200D0
:1051D00008BF20F00100704702F1200201FA02FC32
:1051E000C2F1200250EA4C0021FA02F243EB020025
:1051F00008BF20EADC7070474FF0FF0C1CEAD05269
:105200001EBF1CEAD15392EA0C0F93EA0C0F6FD029
:105210001A4480EA010C400218BF5FEA41211ED007
:105220004FF0006343EA501043EA5111A0FB0131F3
:105230000CF00040B1F5000F3EBF490041EAD371C8
:105240005B0040EA010062F17F02FD2A1DD8B3F144
:10525000004F40EBC25008BF20F00100704790F0B3
:10526000000F0CF0004C08BF49024CEA502040EA05
:1052700051207F3AC2BFD2F1FF0340EAC2507047CB
:1052800040F400004FF00003013A5DDC12F1190F09
:10529000DCBF00F000407047C2F10002410021FA7B
:1052A00002F1C2F1200200FA02FC5FEA310040F193
:1052B000000053EA4C0308BF20EADC70704792F00C
:1052C000000F00F0004C02BF400010F4000F013A44
:1052D000F9D040EA0C0093F0000F01F0004C02BF3F
:1052E000490011F4000F013BF9D041EA0C018FE7AE
:1052F0000CEAD15392EA0C0F18BF93EA0C0F0AD0B4
:1053000030F0004C18BF31F0004CD8D180EA0100D9
:1053100000F00040704790F0000F17BF90F0004F72
:10532000084691F0000F91F0004F14D092EA0C0F54
:1053300001D142020FD193EA0C0F03D14B0218BFE7
:10534000084608D180EA010000F0004040F0FE402D
:1053500040F40000704740F0FE4040F440007047C9
:105360004FF0FF0C1CEAD0521EBF1CEAD15392EA48
:105370000C0F93EA0C0F69D0A2EB030280EA010C38
:1053800049024FEA402037D04FF0805343EA1111D1
:1053900043EA10130CF000408B4238BF5B0042F12F
:1053A0007D024FF4000C8B4224BF5B1A40EA0C00D4
:1053B000B3EB510F24BFA3EB510340EA5C00B3EB06
:1053C000910F24BFA3EB910340EA9C00B3EBD10FF4
:1053D00024BFA3EBD10340EADC001B0118BF5FEA46
:1053E0001C1CE0D1FD2A3FF650AF8B4240EBC2506F
:1053F00008BF20F0010070470CF0004C4CEA502030
:105400007F32C2BFD2F1FF0340EAC250704740F47E
:1054100000004FF00003013A37E792F0000F00F070
:10542000004C02BF400010F4000F013AF9D040EAEE
:105430000C0093F0000F01F0004C02BF490011F482
:10544000000F013BF9D041EA0C0195E70CEAD1537A
:1054500092EA0C0F08D142027FF47DAF93EA0C0F61
:105460007FF470AF084676E793EA0C0F04D14B0245
:105470003FF44CAF08466EE730F0004C18BF31F0F7
:10548000004CCAD130F000427FF45CAF31F00043F1
:105490007FF43CAF5FE700BF4FF0FF3C06E000BF8A
:1054A0004FF0010C02E000BF4FF0010C4DF804CDAD
:1054B0004FEA40024FEA41037FEA226C18BF7FEABD
:1054C000236C11D001B052EA530C18BF90EA010FBF
:1054D00058BFB2EB030088BFC81738BF6FEAE1704E
:1054E00018BF40F0010070477FEA226C02D15FEAEA
:1054F000402C05D17FEA236CE4D15FEA412CE1D056
:105500005DF8040B704700BF844608466146FFE71C
:105510000FB5FFF7C9FF002848BF10F1000F0FBDFE
:105520004DF808EDFFF7F4FF0CBF012000205DF8F7
:1055300008FB00BF4DF808EDFFF7EAFF34BF01207C
:1055400000205DF808FB00BF4DF808EDFFF7E0FF15
:1055500094BF012000205DF808FB00BF4DF808ED66
:10556000FFF7D2FF94BF012000205DF808FB00BFC9
:105570004DF808EDFFF7C8FF34BF012000205DF8AB
:1055800008FB00BF03685A004CBF43F0004323F000
:1055900000431844704700BF61B32DE9F84F01F193
:1055A000FF3A90460646D146002707EB090404EB74
:1055B000D4746410E50071190846FFF7E3FFA245B3
:1055C000834605F10800304409D0FFF7DBFFC345EF
:1055D00000F1FF3005D8404509D2671CE5E7C34517
:1055E00005D9A74202D004F1FF39DEE700210846C1
:1055F000BDE8F88F08467047012807D0022807D079
:10560000044B00280CBF1846002070470248704722
:1056100002487047F55C0000F95C0000FD5C00008A
:1056200030B5264B83B004468D1E4BB301A92846E6
:10563000AFF30080F0B101992A46FFF7ADFF0146B4
:10564000C0B1FFF79FFF4B68A064012B2FD0002B48
:1056500001F1040027DBFFF795FF0023C4E91303E2
:105660000368002B13DBFFF78DFF00232061184632
:1056700003B030BD092300221846226103B030BDBB
:105680000F4B10491846C91AC9100191D4E7C3F34A
:105690000360FFF7B1FF002814BF00230923206136
:1056A000184603B030BD0123C4E91303D8E705232E
:1056B00000221846226103B030BD00BF0000000088
:1056C00024BC00002CBF0000036810B5DA070446B4
:1056D00006D49B0700F1480009D500F067FC236859
:1056E000590709D51A070ED5DB0613D510BD00F0F2
:1056F00055FC23685907F5D404F1D00000F05EFC96
:1057000023681A07F0D404F5A87000F05FFC236842
:10571000DB06EBD404F5E870BDE8104000F09ABC5D
:10572000036803B103441846704700BF092070475F
:10573000704700BF70B504460D4608E02A6C236927
:10574000626121462A4601209847082808D1296C21
:105750002046FFF765FF06460028EFD001F045FF21
:105760000728FBD13046296CFFF7E2FF281D00F027
:1057700009FC00BF2DE9F04705464FF0000CADF5E0
:10578000727D03AC0E1D17460FCE0FC40FCE0FC493
:105790000FCE0FC496E80F00D5F80C80D5F81890FE
:1057A00084E80F0002ACC4F800C021E0236C4FF481
:1057B000F0726B6121467AA801F083FF2B697AAA07
:1057C000294630469847889BCDE900498246636464
:1057D00031462B462A460120C0470746F8B94FF408
:1057E000F0727AA9204601F06CFFBAF1080F1CD1C3
:1057F000216C2846FFF714FF002F08BF0926074633
:1058000018BF0A260028D1D0A36B46F01001CDE9BD
:1058100000492A46636401202B46C04700B109278E
:1058200038460DF5727DBDE8F087BAF1070FF6D165
:105830003846216CFFF77CFF03A800F0A3FB00BFF4
:10584000406C70474FF0FF3CF0B5CB6BF9B00B6488
:105850000D1D01AC0F4606460FCD0FC40FCD0FC472
:105860000FCD0FC495E80F0084E80F00CDF800C0FD
:1058700006E033696A46314698470828044608D14D
:1058800010993046FFF7CCFE0028F2D0092079B0FD
:10589000F0BD6846FFF718FF062CF7D139463046B1
:1058A000FFF748FF30B4DD6BC160826119461D64AB
:1058B000002230BC5EE700BF70B54369C6680B6468
:1058C000BEB903690A4604460D46014602209847C0
:1058D000072807D0082803D129462046FFF72AFFCA
:1058E00001F083FE3046296CFFF722FF281D00F0EF
:1058F00049FB0122FFF73EFF01F077FEC2682AB1A3
:1059000010B4CC6B00220C6410BC33E79AE700BFE4
:10591000704700BF836813B10146012018477047E4
:10592000042907D8DFE801F00308060808000BB9CE
:105930000F2A03D9022070470120704700EB820034
:1059400042681846009B1A60704700BF002310B5DC
:1059500084B003AC0A4600941946FFF7E1FF0398B0
:1059600004B010BD042907D8DFE801F003080608D9
:1059700008000BB90F2A03D9022070470120704795
:10598000009900EB8202096818465160704700BF19
:10599000002310B584B004AC44F8042D00940A46EA
:1059A0001946FFF7DFFF04B010BD00BF4FF0FF3C0A
:1059B000F0B5D36BADF50F7D1364151D17AC07461D
:1059C0000E460FCD0FC40FCD0FC40FCD0FC495E8F9
:1059D0000F0084E80F00CDF858C012E00C2116A883
:1059E0006A46FFF7D5FF314616A8B84778B9049B39
:1059F00016AA6946082098470528044608D00928B1
:105A000005D026996846FFF70BFE0028E6D009244A
:105A100016A8FFF759FE20460DF50F7DF0BD00BF1B
:105A20002DE9F04F0D46C96C89B00C1D164600F0EB
:105A3000030B0A681F460694002B68D00221130C42
:105A40008DF81D301204DBB204EB830405928DF84F
:105A50001C102B6DBBF1020F08BFAC6B13F00103E0
:105A600046D1019300F008030093D4F80090B9F1F7
:105A7000000F00F0F380022F45D0B4F80090B4F886
:105A800002800434AB6C28F0010A0F2130469A449E
:105A9000FFF75CFF824534D829F001035344834269
:105AA00094BF002001204FEA480808F0020809F0DE
:105AB000010948EA0908B8F1010F3AD031D3B8F129
:105AC000020F1AD1236823F0004ABBF1000F66D100
:105AD00030B1009A002A6CD0BAF1000F00F090802B
