:100000000000022091010000BD010000BD010000C0
:10001000BD010000BD010000BD010000BD010000E8
:10002000BD010000BD010000BD010000BD010000D8
:10003000BD010000BD010000BD0100002134000031
:10004000BD010000BD010000BD010000BD010000B8
:10005000BD010000BD010000BD010000BD010000A8
:10006000BD010000BD010000BD010000BD01000098
:10007000BD010000BD010000BD010000BD01000088
:10008000BD010000BD010000BD010000BD01000078
:10009000BD010000BD010000BD010000BD01000068
:1000A000BD010000BD010000BD010000BD01000058
:1000B000BD010000BD010000BD010000BD01000048
:1000C000BD010000BD010000BD010000BD01000038
:1000D000BD010000BD010000BD01000010B5054CD0
:1000E000237833B9044B13B10448AFF300800123E4
:1000F000237010BDF001002000000000A4B2000039
:1001000008B5034B1BB103490348AFF3008008BD9A
:1001100000000000F4010020A4B20000154B002BE9
:1001200008BF134B9D46A3F5803A00218B460F462E
:100130001348144A121A07F030F80F4B002B00D066
:1001400098470E4B002B00D0984700200021040058
:100150000D000D48002802D00C48AFF3008006F0D7
:10016000A7FF2000290004F00DF906F08DFF00BF65
:100170000000080000000220000000000000000055
:10018000F0010020580200200000000000000000E4
:10019000064880470649074A074B9A42BEBF51F8B6
:1001A000040B42F8040BF8E7FFF7B8FF3503000033
:1001B00030B9000000000020F0010020FEE700BF81
:1001C00080B400AF034BDB6C1B0EDBB21846BD46A0
:1001D00080BC7047B081E00F80B582B000AF00F006
:1001E0001FF87860074B5B6803F00F037A6822FA08
:1001F00003F37B60044A7B6813607B68184608370A
:10020000BD4680BD00800C400800002080B400AFD7
:10021000024B1846BD4680BC704700BF006CDC0234
:1002200080B582B000AF334BDB6A03F47053B3F593
:10023000805F0AD0B3F5005F03D0B3F5006F08D03C
:100240000BE02D4B1B687B6047E04FF400437B6065
:1002500043E02A4B1B687B603FE0264BDB6803F4DE
:10026000E063B3F5007F1BD0B3F5007F05D8002B0A
:1002700024D0B3F5807F16D02BE0B3F5806F09D082
:10028000B3F5A06F03D0B3F5407F06D021E01C4B3F
:100290007B6021E01B4B7B601EE01B4B7B601BE007
:1002A0001A4B7B6018E0FFF78BFF0346122B02D935
:1002B000174B7B6010E0174B7B600DE0FFF780FF72
:1002C0000346122B02D9144B7B6005E0134B7B6075
:1002D00002E000237B6000BF00BF064B1B689B0B46
:1002E00003F0070301337A68B2FBF3F318460837CB
:1002F000BD4680BD00800C400400002000000020AE
:10030000003FAB01406F4001809FD500C0D8A700DF
:1003100040B56400C0CF6A00804F120040420F0019
:1003200080B400AF024B1B681846BD4680BC7047C6
:100330000000002080B400AF00BFBD4680BC704705
:1003400080B400AF4FF400431846BD4680BC7047F0
:1003500080B400AF4FF47A731846BD4680BC704736
:1003600080B400AF024B1B681846BD4680BC704786
:100370000400002080B582B000AF3A4B5B6C394A74
:1003800043F400535364384BD3F82031364A43F0DA
:100390000403C2F82031344BD3F82031324A23F41D
:1003A0004073C2F82031304BD3F8B8302E4A23F4D2
:1003B0007063C2F8B8302C4BD3F8B8302A4A43F4F3
:1003C0008063C2F8B830274B10221A6200BF254B59
:1003D000DB6A03F02003002BF9D0244B1B68234A6F
:1003E00043F001031360214BDB68204A43F0807324
:1003F000D3601F4B1F4A1A601F4800F06DFC034674
:1004000003F5D52303F2FC437B607B68DB081B4AC2
:10041000A2FB03239B0A3B60194A3B68013B136123
:10042000174B0222C3F8F020154B4FF48072C3F82B
:1004300004234FF06043134AC3F8B02F4FF06043DA
:10044000114AC3F8802E4FF06043D3F8003E4FF0BE
:10045000604243F00103C2F8003E0123184608370A
:10046000BD4680BD00800C4000600040F0ED00E023
:10047000001000E0FF13014006000E001791650216
:10048000000004E055CEACC50900010080B500AF06
:10049000FFF770FF00BF80BD80B487B000AFF86089
:1004A000B9607A60FB6803F10473DA00BB68134437
:1004B0009B007B617B697A681A6000BF1C37BD4670
:1004C00080BC704780B485B000AF786039607B68CD
:1004D00003F10473DA003B6813449B00FB60FB6884
:1004E0001B6818461437BD4680BC704780B485B081
:1004F00000AF78607B68002B03D07B68B3F5004FBA
:1005000000BF7B68B3FA83F3DBB2C3F11F03FB6068
:10051000FB6818461437BD4680BC704780B400AFF6
:10052000034BDB6C1B0EDBB21846BD4680BC70472C
:10053000B081E00F80B400AF034BDB6C1B0CDBB26F
:100540001846BD4680BC7047B081E00F80B582B0D0
:1005500000AFFFF7EFFF03464A2B04D0792B02D000
:10056000482B23D024E0154B1B699BB21B029BB286
:1005700003F47C53FB80114B9B691B091B0103F0A7
:10058000F0039AB2FB881343FB800C4BDB691B0919
:1005900003F00F039AB2FB881343FB80FB88B3F58B
:1005A000017F01D3064B04E0064B02E0054B00E05F
:1005B000002318460837BD4680BD00BFD0FF0FE0BE
:1005C00000366E010048E80180B584B000AF786065
:1005D0000123FB60FFF7BAFF02467B68934204D811
:1005E0000023FB600023BB600BE0FFF7AFFF034677
:1005F0005B007A689A4202D80123BB6001E00223C3
:10060000BB60FA681E210848FFF746FF064B5B688F
:1006100023F48072BB681B02034913434B6000BF85
:100620001037BD4680BD00BF00800C4080B582B051
:1006300000AF1E210448FFF745FF78607B6818462D
:100640000837BD4680BD00BF00800C4080B582B039
:1006500000AF214B5B6903F4E063B3F5007F1CD06E
:10066000B3F5007F05D8002B25D0B3F5807F1FD0D0
:100670002AE0B3F5C06F24D0B3F5E06F1ED0B3F518
:10068000407F21D1FFF74AFF0346122B02D9134BBB
:100690007B601CE0124B7B6019E0FFF73FFF0346D5
:1006A000122B02D90F4B7B6011E00F4B7B600EE0E9
:1006B0000E4B7B600BE00E4B7B6008E00D4B7B60CC
:1006C00005E00D4B7B6002E000237B6000BF7B6890
:1006D00018460837BD4680BD00800C40804F120090
:1006E00040420F0040B56400C0CF6A00C0D8A700E8
:1006F000809FD500406F4001003FAB0180B582B0C4
:1007000000AF0D4800F0D4FB0346FB70FB78072BCD
:1007100005D0092B07D1FFF783FD786006E0FFF7CE
:1007200095FF786002E000237B6000BF7B6818467D
:100730000837BD4680BD00BF06000E0080B485B0FE
:1007400000AF78603960204B5B6803F00703FB6003
:10075000FB68012B01D9042B02D10023FB7202E0BC
:100760000123FB7200BF7B68184A934207D9FB7ACA
:10077000002B01D0052300E00423FB6016E07B681A
:10078000124A93420BD87B68114A934207D9FB7AED
:10079000002B01D0032300E00123FB6006E0FB7A7D
:1007A000002B01D0022300E00023FB60064B5B68B6
:1007B00023F007020449FB6813434B6000BF143762
:1007C000BD4680BC704700BF00000C400048E801F7
:1007D0000024F40080B582B000AF0E4BDB6B002B21
:1007E00014BF01230023FB710A4B41F67132DA6317
:1007F000FFF70CFD034600211846FFF79FFFFB792A
:10080000002B02D0034B0022DA6300BF0837BD463D
:1008100080BD00BF00000C4080B584B000AF7860A0
:1008200039600C4BDB6B002B14BF01230023FB73DF
:10083000084B41F67132DA6339687868FFF77EFF5A
:10084000FB7B002B02D0034B0022DA6300BF103782
:10085000BD4680BD00000C4090B585B000AF78600B
:100860000023BB607B68344A934203D0334A9342EF
:1008700000D000E000BF786800F01AFB0346FB6080
:100880007B682D4A934203D02C4A934206D00CE059
:100890002B4B9B6A03F00303FB6006E0284B9B6A2B
:1008A0009B0803F00303FB6000BFFB68032B39D8F0
:1008B00001A252F823F000BFEF080000C9080000B1
:1008C000D1080000D9080000FFF73AFDB8602DE01C
:1008D000FFF746FDB86029E0FFF77EFC0446FFF70E
:1008E000A5FE0346013324FA03F3BB601EE0002398
:1008F000BB607B68104A934203D07B680F4A9342E7
:1009000013D10F4B9A6A7B680B498B4201D110239C
:1009100000E0142322FA03F3002B06D0FFF718FDA2
:10092000B86002E00023BB6000E000BFBB6818466F
:100930001437BD4690BD00BF02001E00030020001A
:1009400000800C4080B483B000AF7860094B5B6DD1
:1009500003F00103002B07D100BF064B1A6D7B6823
:100960001340002BF9D100E000BF0C37BD4680BC1E
:10097000704700BF00800C4080B582B000AF1048C7
:1009800000F096FA0346FB70FB78032B07D0092B87
:1009900009D0022B0BD1FFF7E3FC78600AE0FFF7E8
:1009A000CFFC786006E0FFF73BFC786002E00023B4
:1009B0007B6000BF7B6818460837BD4680BD00BF1E
:1009C0000723260080B400AF00BFBD4680BC70473F
:1009D00080B400AF00BFBD4680BC704790B585B005
:1009E00000AF786039607B681B0903F00F03FB6080
:1009F000FB68013B082B00F2F48001A252F823F0BF
:100A0000250A0000E30B0000E30B0000590A000078
:100A1000E30B0000E30B0000810A0000CD0A000098
:100A20008F0B00003B68002B02D03B68082B00BFF7
:100A3000FFF7D0FE6D4B1B6823F4E0323B68013BAF
:100A40009B036A4913430B60FFF7C6FBB8600021A4
:100A5000B868FFF7E1FEC5E03B68002B03D03B68B8
:100A6000B3F5007F00BF3868FFF740FD38605F4B8B
:100A70009B6823F00F025D493B6813438B60B1E034
:100A80003B68002B03D03B68B3F5007F00BFFFF746
:100A9000A1FEFFF7C5FB02463B68B2FBF3F3184625
:100AA000FFF792FD3868FFF721FD38604F4B5B6818
:100AB00023F00F024D493B6813434B60FFF78CFB5B
:100AC000B8600021B868FFF7A7FE8BE07B68484A52
:100AD00093421ED0464A934203D8464A934207D0D7
:100AE00054E0454A934225D0444A93423ED04DE0DB
:100AF0000420FFF727FF3868FFF7F8FC38603B4B0E
:100B00009B6E23F0F0023B681B01384913438B6650
:100B10003CE00420FFF716FF3868FFF7E7FC386079
:100B2000324B9B6E23F470623B681B022F491343C8
:100B30008B662BE03B680F2B02D93B68802B00BFF4
:100B40000420FFF7FFFE3868FFF7D0FC3860274B22
:100B50009B6E23F440541020FFF7C8FC02463B680C
:100B60009B1A1B03214A234393660FE00420FFF7DF
:100B7000E9FE3868FFF7BAFC38601C4B9B6E23F027
:100B800003021A493B6813438B6600BF2AE07B6867
:100B90001B4A934203D01B4A934210D020E04020CE
:100BA000FFF7D0FE3868FFF7A1FC38600F4B1B6FD2
:100BB00023F003020D493B6813430B6710E040200C
:100BC000FFF7C0FE3868FFF791FC3860074B1B6FDA
:100BD00023F030023B681B01044913430B6700BF3D
:100BE00000E000BF00BF1437BD4690BD00800C4040
:100BF000802616008016120080002A0080062E0033
:100C000090071A0090171C0080B586B000AF78607E
:100C10000B46FB7000233B617B681B0A03F00F034C
:100C2000013B092B45D801A252F823F0690C0000C2
:100C30006F0C0000550C0000B30C0000B30C00005A
:100C4000750C00007F0C0000B30C0000B30C00001A
:100C5000890C0000194B7B61194800F03DF80346F0
:100C60001846FFF7B1FC12E0164B7B610FE0164B04
:100C70007B610CE0154B7B6101233B6107E0144B6A
:100C80007B6110233B6102E0124B7B6100BF7B68FC
:100C90001B0B03F01F03FB603B69002B02D038697C
:100CA000FFF750FEFB781A46F9687869FFF7F4FB06
:100CB00000E000BF1837BD4680BD00BF40800C403B
:100CC0000043020008800C4044800C4058800C40D7
:100CD00060800C4078800C4090B585B000AF7860A3
:100CE0007B6803F47813B3F5D01F00F0AB80B3F545
:100CF000D01F1AD8B3F5602F00F0BF80B3F5602F76
:100D000008D8B3F5003F3CD0B3F5802F2DD0002B91
:100D100027D0BEE0B3F5901F3CD0B3F5B01F47D04D
:100D2000B3F5801F00F0AD80B3E0B3F5181F00F0FD
:100D3000AC80B3F5181F0AD8B3F5F01F25D0B3F572
:100D4000001F7AD0B3F5E01F00F08980A1E0B3F571
:100D5000301F4ED0B3F5381F62D0B3F5281F35D001
:100D600097E0FFF75DFAF86096E0FFF759FAF86050
:100D70004C4B9B6803F00F03FA6822FA03F3FB6005
:100D80008AE0FFF729FAF86086E04748FFF764FD3C
:100D9000F86081E04448FFF75FFDF860414B9B6ECF
:100DA0001B0903F00F03FA6822FA03F3FB6073E0F8
:100DB0003D48FFF751FDF8603A4B9B6E1B0A03F06C
:100DC0000F03FA6822FA03F3FB6065E03648FFF789
:100DD00043FDF860334B9B6E1B0B03F003041020A4
:100DE000FFF784FB03462344FA6822FA03F3FB600F
:100DF00052E02D48FFF730FDF8602A4B9B6E1B0B2D
:100E000003F00303FA6822FA03F3FB60254BDB6F60
:100E100003F007030133FA68B2FBF3F3FB603BE036
:100E20002148FFF719FDF8601E4B9B6E03F003038A
:100E3000FA6822FA03F3FB602EE01C48FFF70CFD72
:100E4000F86029E01948FFF707FDF860154B1B6FA4
:100E500003F00303FA6822FA03F3FB601CE0134873
:100E6000FFF7FAFCF8600F4B1B6F1B0903F003033D
:100E7000FA6822FA03F3FB600EE0FFF73FFCF8602C
:100E80000AE0FFF7E3FBF86006E0FFF775FDF860A6
:100E900002E00023FB6000BFFB6818461437BD4624
:100EA00090BD00BF00800C4002001E000300200027
:100EB00080B485B000AF78600123FB737B6803F0DA
:100EC0000F03BB60BB68013B062B00F2938001A2BD
:100ED00052F823F0F10E0000270F0000630F00000E
:100EE000F50F0000F50F00009F0F0000C10F00007C
:100EF000454BDB6A03F47053B3F5805F09D0B3F55B
:100F0000005F03D0B3F5006F06D008E00223FB7347
:100F100008E00323FB7305E00423FB7302E00523D1
:100F2000FB7300BF69E0384B9B6A03F00303022B9D
:100F300006D0032B07D0012B08D10323FB730FE04E
:100F40000223FB730CE00623FB7309E02E4B9B6A24
:100F500003F48033002B02D00A23FB7300E000BFB0
:100F60004BE0294B9B6A03F00C03082B06D00C2B9B
:100F700007D0042B08D10323FB730FE00223FB737C
:100F80000CE00623FB7309E01F4B9B6A03F48013FC
:100F9000002B02D00A23FB7300E000BF2DE01A4BA8
:100FA0001B6803F08053002B03D0B3F1805F03D0A4
:100FB00023E00723FB7302E00923FB7300BF1CE05F
:100FC000114BDB6A03F46033B3F5803F08D0B3F50F
:100FD000003F08D0B3F5004F08D10923FB7308E0A8
:100FE0000223FB7305E00323FB7302E00123FB7381
:100FF00000BF02E00023FB7300BFFB7B18461437E1
:10100000BD4680BC704700BF00800C4080B588B0F2
:1010100000AF78600B46FB700323FB610323FB7674
:1010200000233B617B6803F00F03FB60FB68013B1F
:10103000062B00F22C8101A252F823F05910000077
:1010400037110000371100008F1200008F120000CE
:10105000FD11000027120000FB78023B082B00F274
:10106000188101A252F823F08D10000097100000A3
:10107000A1100000E3100000931200009312000082
:101080009312000093120000931200000423FB61EE
:101090000023FB7631E00323FB610123FB762CE088
:1010A0000223FB610223FB76FFF750FA034601336C
:1010B0001846FFF789FAFFF733F90246784B9A4250
:1010C00006D9784B1B68774A43F06003136014E03D
:1010D000744B1B6823F06003724A43F020031360D3
:1010E0000BE00123FB610323FB76FFF72FFA034696
:1010F00001331846FFF768FA00BFFB7E0122012189
:10110000184600F0D5F8FFF765FBFFF75BFC654A72
:10111000FB6953626448FFF7DFFD03461846FFF79B
:1011200053FAFFF759F8B8600021B868FFF774FB6D
:10113000FFF74EFCB0E0FB78013B092B00F2AB80DF
:1011400001A252F823F000BF7111000077110000D6
:1011500087110000971200009712000097110000FD
:10116000971200009712000097120000B3110000C0
:1011700000237B6122E001220121002000F098F889
:1011800002237B611AE001220121012000F090F886
:1011900001237B6112E0FFF71FF8B860B868FFF722
:1011A00013FA012204214148FFF776F903237B61FA
:1011B00004E000237B6101233B6100BFFB68022B3D
:1011C0000DD1384B9B6A23F4803323F003037A69F3
:1011D0001A433B691B04334913438B625CE0314B78
:1011E0009B6A23F4801323F00C037A6992001A435C
:1011F0003B691B052B4913438B624DE0FB78072BA2
:1012000002D0092B07D047E0264B1B68254A23F064
:101210008053136006E0234B1B68224A43F080533F
:10122000136000BF38E0FB78032B14D0092B22D0C9
:10123000022B00D030E001220121002000F038F81C
:10124000184B40225A6200BF164BDB6A03F480330E
:10125000002BF9D01AE001220121012000F028F82A
:10126000104B60225A6200BF0E4BDB6A03F400335E
:10127000002BF9D00AE00B4B20225A6200BF094B29
:10128000DB6A03F40043002BF9D000BF04E000BF89
:1012900002E000BF00E000BF2037BD4680BD00BFB8
:1012A0000048E80100800C400043020040800C40F0
:1012B00080B586B000AF0346FB710B46BB71134689
:1012C0007B71FB79042B48D801A252F823F000BFB0
:1012D0001D1300000F130000F3120000E5120000C0
:1012E0000113000001233B610223FB6001237B61AA
:1012F0001DE004233B610823FB6003237B6116E0B0
:1013000010233B612023FB6005237B610FE040231A
:101310003B618023FB6007237B6108E04FF480730F
:101320003B614FF40073FB6009237B6100BFBB7915
:10133000002B0ED00B4A3B6913627B79002B0DD03A
:1013400000BF79690848FFF7BDF80346002BF8D0C5
:1013500004E0044AFB68136200E000BF1837BD4692
:1013600080BD00BF00800C402C800C4080B483B056
:1013700000AF03463960FB71FB79002B0DD0FB7980
:10138000012B0AD0FB79022B07D0FB79032B04D069
:10139000FB79042B01D0FB79052B01223B6802FA73
:1013A00003F30749FA7918461346DB0013449B0000
:1013B0000B441433186000BF0C37BD4680BC704727
:1013C0000060004080B483B000AF03463960FB7119
:1013D000FB79002B0DD0FB79012B0AD0FB79022B76
:1013E00007D0FB79032B04D0FB79042B01D0FB79C8
:1013F000052B01223B6802FA03F30749FA791846E4
:101400001346DB0013449B000B441033186000BFED
:101410000C37BD4680BC70470060004080B584B08A
:1014200000AFB9607B600346FB731346BB73FB7B65
:10143000002B0DD0FB7B012B0AD0FB7B022B07D0AE
:10144000FB7B032B04D0FB7B042B01D0FB7B052B08
:10145000BB7B002B0DD07B68002B05D0FB7BB968D4
:101460001846FFF7AFFF04E0FB7BB9681846FFF7AB
:101470007DFFBB68072B20D82D49FA7B1346DB0084
:1014800013449B000B4404331A68BB689B000F2174
:1014900001FA03F3DB431340B97BBA68920001FA07
:1014A00002F211462248FA7B19431346DB0013442B
:1014B0009B0003440433196025E01D49FA7B134661
:1014C000DB0013449B000B4408331A68BB6803F12C
:1014D0008043083B9B000F2101FA03F3DB4302EA40
:1014E0000301BA7BBB6803F18043083B9B0002FA0F
:1014F00003F30F48FA7B19431346DB0013449B00A8
:10150000034408331960BB7B002B0DD17B68002B93
:1015100005D0FB7BB9681846FFF754FF04E0FB7B5E
:10152000B9681846FFF722FF00BF1037BD4680BDDF
:101530000060004080B487B000AFF860B9607A60A6
:10154000FB6803F10473DA00BB6813449B007B6102
:101550007B697A681A6000BF1C37BD4680BC704743
:1015600080B485B000AFF860B9607A60FB681A6833
:10157000BB68DB431A407B681A43FB681A6000BFF4
:101580001437BD4680BC704780B588B000AFF860A6
:10159000B9607A60FB707B68002B5ED0FB681B68CB
:1015A00023F44072FB681A60F868FB781B021A4645
:1015B0004FF44071FFF7D4FFBB68002B03D12948DB
:1015C000FFF78AFBB8604FF0FF33BB61FB681B6815
:1015D00003F00203002B10D0FB78012B07D0022B65
:1015E00008D0002B00D019E01F4BBB6116E01F4B49
:1015F000BB6113E01E4BBB6110E0FB78012B07D0F1
:10160000022B08D0002B00D008E01A4BBB6105E08C
:10161000194BBB6102E0194BBB6100BFFB78184A54
:10162000D35C7B617B689B00BA68D21A7B6979685E
:1016300001FB03F3B2FBF3F3013BFB61FB681B68A7
:1016400003F00203002B04D0FB69002B01D101231E
:10165000FB61FA69FB681A6100E000BF2037BD46F4
:1016600080BD00BF4081040040164000C0D8A700E4
:101670008050740180841E0040548900002D310187
:1016800084AB000080B582B000AF786039607B68C1
:10169000154A934202D07B68144A934200BF7B688C
:1016A00000225A637B68124A1A6378683B685B7849
:1016B00083F00103DBB21A460121FFF73BFF3B68D1
:1016C00059683B689A683B681B7B7868FFF75CFF4A
:1016D00078683B681B781A460021FFF72BFF00BF94
:1016E0000837BD4680BD00BF00A0004000A40040F8
:1016F000CFFF010080B489B000AF78607B689D4A5D
:10170000934202D07B689C4A934200BF7B68994A0F
:10171000934202D1994BBB6109E07B68964A9342A0
:1017200002D1974BBB6102E06FF003030AE2BB6991
:101730009B687B617B689B6A3B613B6903F4C06388
:10174000002B14D03B6903F40073002B03D0BB695A
:10175000FD225A7007E03B6903F48063002B02D03E
:10176000BB69FE225A70BB6909221A70D5E1BB69B8
:101770001B78082B00F2BD8101A252F823F000BFB4
:10178000A5170000F71700007F180000D11800000F
:1017900023190000851900000D1A0000491A0000E5
:1017A000D91A00007B695B8803F01003002B09D075
:1017B0007B691B881B0A9BB203F0060343F0F0030E
:1017C000FB610EE07B691B8803F0FE03FB617B6914
:1017D0005B8803F00203002B03D0FB6943F0010395
:1017E000FB61BB6901221A707B68FA695A627B68E7
:1017F00001225A6091E13B6903F08003002B0CD079
:101800007B6880221A63BB69FF225A70BB69082279
:101810001A707B6802225A6074E13B6903F040034E
:10182000002B00F06F817B6840221A637B695B8824
:1018300003F01003002B08D0BB6902221A707B69E9
:101840001B88DAB27B685A625CE17B695B8803F0D3
:101850000203002B0FD0BB6907221A70BB691B79EA
:101860007A69DB0013441B89012B40F04B817B68B4
:1018700008225A6046E1BB6905221A7041E13B69C2
:1018800003F08003002B0CD07B6880221A63BB69B5
:10189000FF225A70BB6908221A707B6802225A60C4
:1018A00032E13B6903F04003002B00F02D817B689F
:1018B00040221A637B695B8803F00203002B03D08C
:1018C000BB6903221A701CE1BB6905221A7018E17A
:1018D0007B695B8803F01003002B09D07B691B88B0
:1018E0001B0A9BB203F0060343F0F003FB6104E024
:1018F0007B691B8803F0FE03FB617B695B8803F057
:101900000403002B03D0FB6943F00103FB61BB69B7
:1019100004221A707B6801225A607B68FA695A6255
:10192000FBE03B6903F08003002B0CD07B68802236
:101930001A63BB69FF225A70BB6908221A707B6860
:1019400002225A60E2E03B6903F04003002B00F002
:10195000DD807B6840221A637B695B8803F00403A7
:10196000002B03D0BB6907221A70CFE0BB690522A8
:101970001A70C6E000A0004000A400400C02002045
:1019800018020020BB695A88BB691B797969DB00A2
:101990000B441B899A4224D3BB6900225A80BB693D
:1019A0001B790133DAB2BB691A717B695B8803F07A
:1019B0000403002B03D0BB6903221A70A1E07B69EA
:1019C0005B8803F00103002B04D1BB691B79012B59
:1019D00040F29680BB6908221A707B6802225A6026
:1019E0009BE0BB691B797A69DB0013445A68BB69C9
:1019F0005B88591C88B2B969488013441B781A4621
:101A00007B685A62BB6906221A7086E03B6903F064
:101A10008003002B0CD07B6880221A63BB69FF22F5
:101A20005A70BB6908221A707B6802225A606FE004
:101A30003B6903F04003002B6AD07B6840221A63A5
:101A4000BB6905221A705CE03B6903F02003002BA0
:101A500060D0BB691B797A69DB0013441B89FB608A
:101A60007B68DB69FB72BB695B881A46FB68934243
:101A70000ED9BB691B797A69DB0013445A68BB69CC
:101A80005B88591C88B2B96948801344FA7A1A7085
:101A9000BB695B881A46FB6893420CD8FB68012B34
:101AA00002D17B6808225A60BB6908221A707B68E1
:101AB00002225A602EE07B6804225A60FB68012BE8
:101AC00028D9BB695B881A46FB68013B9A4221D141
:101AD0007B6808225A601DE03B6903F48073002B89
:101AE0001AD07B684FF480721A63BB6909221A709E
:101AF00012E0BB69FB225A70BB6909221A700CE024
:101B000000BF17E600BF08E000BF06E000BF04E02A
:101B100000BF02E000BF00E000BFBB691B78092BDB
:101B20000BD17B6800225A63BB6993F90130012B0A
:101B300005D1BB6900225A7001E0012302E0BB69B4
:101B400093F9013018462437BD4680BC704700BF6A
:101B500080B584B000AF786039607B68314A9342C9
:101B600002D07B68304A934200BF7B682D4A934283
:101B700002D12E4BFB6009E07B682B4A934202D1D5
:101B80002B4BFB6002E06FF0030346E07B689B6831
:101B900003F00103002B02D07B6820225A603B68CF
:101BA0005B8803F00203002B03D03B681B89002BEA
:101BB00009D03B685B8803F00403002B06D03B6828
:101BC0001B8A002B02D16FF0030326E0FB68002282
:101BD0001A70FB6801225A70FB6800225A80FB6869
:101BE00000221A71FB683A689A607B68C0225A60CA
:101BF0007B689B6A03F02003002B01D07B68DB69C4
:101C00007B680C4A1A637B685B6B43F4FC627B68FD
:101C10005A637868FFF76EFD034618461037BD46D5
:101C200080BD00BF00A0004000A400400C020020C6
:101C300018020020CFFF010080B483B000AF7860AD
:101C400039607B681B6C03F00103002B07D100BFD8
:101C50007B685A6C3B681340002BF9D100E000BF51
:101C60000C37BD4680BC704780B586B000AFF860C9
:101C7000B9607A60BB68002B10D1FB68164A9342AA
:101C800002D1164B7B6105E0FB68154A93421ED1D9
:101C9000144B7B617869FFF71FF8B860BB685A0185
:101CA0007B68B2FBF3F33B613B69203B3B613B69E3
:101CB000DB003B613A6947F6F87313403B6104214E
:101CC000F868FFF7B9FFFB683A69DA6000E000BF27
:101CD0001837BD4680BD00BF0040084090071A007D
:101CE0000044084090171C0080B584B000AF7860B5
:101CF0000B46FB707B68104A934202D07B680F4A08
:101D0000934200BFFB78DB43FB60FB6803F00503F5
:101D1000FB60FB685B00FB60FB78FA681343FB60C9
:101D200002217868FFF788FF7B68FA685A6000BF75
:101D30001037BD4680BD00BF004008400044084049
:101D400080B483B000AF78600B46FB70FB78002B4B
:101D500008D000BF7B685B6C002BFBD17B68012245
:101D60001A6402E07B6800221A6400BF0C37BD468B
:101D700080BC704780B582B000AF786039607B6806
:101D80001A4A934202D07B68194A934200BF02214B
:101D90007868FFF751FF7B680A225A600121786852
:101DA000FFF7CEFF7B681B6823F01C033A68127BA9
:101DB00013433A68527B13433A68927B1A437B6819
:101DC0001A603B6859683B689B681A467868FFF759
:101DD0004BFF3B681B781A467B685A600021786885
:101DE000FFF7AEFF00BF0837BD4680BD004008408A
:101DF0000044084080B582B000AF78600B46FB70AD
:101E000000BF7B689B6803F01003002BF9D04021D2
:101E10007868FFF711FFFA787B689A6200BF08378D
:101E2000BD4680BD80B485B000AF78601A4B5B6959
:101E3000DBB29B00DBB203F03C03FB73164B1B6968
:101E40009B09DBB203F00303DAB2FB7B1343FB73A2
:101E50007B68FA7B9A70104B1B69DBB203F03F037F
:101E6000DAB27B685A700C4B9B691B09DBB21B0111
:101E7000FB73094BDB691B09DBB203F00F03DAB21A
:101E8000FB7B1343FB737B68FA7B1A7000BF14372C
:101E9000BD4680BC704700BFD0FF0FE080B586B064
:101EA00000AFF860B9607A60FB70BB68002B03D1AB
:101EB0002448FEF711FFB860FB78202B0CD0202BB4
:101EC00002DC002B05D03AE0402B08D0602B09D073
:101ED00035E010237B6108E008237B6105E00623E1
:101EE0007B6102E004237B6100BFBB689A007B69D1
:101EF000796801FB03F35B0813443B617B697A68F3
:101F000002FB03F33A69B2FBF3F33B613B69043B29
:101F10003B613B699B013B613A690B4B13403B6161
:101F2000FB681B6823F06002FB681A60FB681A6894
:101F3000FB781A43FB681A60FB683A695A611837E4
:101F4000BD4680BD40810400C0FF1F0080B485B045
:101F500000AF78600B46FB707B68134A93420ED04B
:101F60007B68124A93420AD07B68114A934206D09A
:101F70007B68104A934202D07B680F4A934200BFAD
:101F8000FB78DB43FB60FB6803F00503FB60FB6849
:101F90005A007B68DA60FA787B68DA6000BF143731
:101FA000BD4680BC704700BF00C0004000C4004078
:101FB00000C8004000E0004000E4004080B582B06E
:101FC00000AF786039607B68294A93420ED07B6805
:101FD000284A93420AD07B68274A934206D07B68FE
:101FE000264A934202D07B68254A934200BF786814
:101FF00000F048F83B689B7C002B05D07B681B6891
:1020000043F080427B681A603B68DB7C002B07D082
:102010003B681B7D43F01003DBB21A467B689A6570
:102020003B685B7B1A463B681B8A13433A68D2893C
:102030001A437B685A603B6859683B689A683B68FA
:102040001B7B7868FFF72AFF3B685B7D002B05D080
:102050007B681B6843F480327B681A603B681B789E
:102060001A467B68DA6000BF0837BD4680BD00BFF6
:1020700000C0004000C4004000C8004000E0004034
:1020800000E4004080B483B000AF78607B68244AED
:1020900093420ED07B68234A93420AD07B68224A3F
:1020A000934206D07B68214A934202D07B68204A43
:1020B000934200BF7B6840F6AA62DA607B68002228
:1020C0001A607B6841F205025A607B6800229A60C0
:1020D0007B6800225A617B680022DA647B6841F6E3
:1020E000F9729A647B6800225A657B680C4A9342B5
:1020F00002D17B6800221A657B6800229A657B68A2
:10210000084A934203D07B68074A934202D17B6816
:102110000022DA6500BF0C37BD4680BC704700BFA7
:1021200000C0004000C4004000C8004000E0004083
:1021300000E4004080B483B000AF786000BF7B68EB
:102140001B6903F08003002BF9D07B68DB69DBB2ED
:1021500018460C37BD4680BC704780B483B000AFD2
:102160007860002318460C37BD4680BC704780B4A9
:1021700083B000AF7860FEE780B483B000AF7860D2
:1021800039603B684FF400525A60002318460C3700
:10219000BD4680BC704780B400AF01231846BD46E1
:1021A00080BC704780B483B000AF786001231846CC
:1021B0000C37BD4680BC704780B483B000AF7860F8
:1021C00039604FF0FF3318460C37BD4680BC70476E
:1021D00080B485B000AFF860B9607A60002318461B
:1021E0001437BD4680BC704780B586B000AFF8603C
:1021F000B9607A6000237B610FE000F08FF83861EE
:102200003B69B3F1FF3F0ED0BB685A1CBA603A6914
:10221000D2B21A707B6901337B617B685A1E7A6087
:10222000002BEAD100E000BF7B69002B02DC4FF0FD
:10223000FF3300E07B6918461837BD4680BD0000BB
:1022400080B485B000AF78600A4B1B68002B02D1C8
:10225000084B094A1A60074B1B68FB60054B1A685C
:102260007B681344034A1360FB6818461437BD4665
:1022700080BC7047240200205802002080B586B040
:1022800000AFF860B9607A6000237B6109E0BB6849
:102290005A1CBA601B78184600F032F87B6901338B
:1022A0007B617A697B689A42F1DB7B681846183754
:1022B000BD4680BD80B483B000AF78604FF060430E
:1022C000D3F8803E03F00103002B13D04FF060439E
:1022D000D3F8003E03F00103002B0BD000E000BF59
:1022E0004FF060431B68002BF9D04FF060437A68D1
:1022F000D2B21A707B6818460C37BD4680BC704756
:1023000080B582B000AF0346FB71FB791846FFF73A
:10231000D1FF034618460837BD4680BD80B400AFE4
:1023200000231846BD4680BC704780B500AFFEF75D
:10233000ADF800BF80BD80B483B000AF7860396075
:102340003B6818460C37BD4680BC704780B483B0EC
:1023500000AF7860396000BF0C37BD4680BC704765
:1023600090B587B000AF78601C4B07F108040FCB25
:1023700084E80F007B681A4A1A6001F05FF80121B7
:102380001848FEF741FC4FF416533B610023FB60F5
:1023900000233B727B681B6807F108021146184650
:1023A000FFF7E8FC0023012205210320FFF736F8A0
:1023B0000123042204210320FFF730F87B681B6807
:1023C00003225A657B681B6805211846FFF78CFCC1
:1023D0007B6818461C37BD4690BD00BF88AB000027
:1023E0000040084090071A0080B584B000AF7860C4
:1023F000396001F03FF80346BB6001F03BF803464B
:10240000FB607B681B689B6803F02003002B14BFF4
:1024100001230023DBB2002B07D03B6800221A60A7
:102420007B681B68DB69DBB211E0FA68BB68D31A12
:1024300041F27072934205D93B684FF0FF321A6047
:10244000FE2304E001F016F80346FB60D9E71846C6
:102450001037BD4680BD80B582B000AF78600B46B6
:10246000FB707B681B68FA7811461846FFF7C2FCC0
:10247000002318460837BD4680BD80B592B000AF36
:10248000F860B9607A603B60F86800F0F1F9002309
:102490007B6407F11403184604F0AAFA0022396895
:1024A000786804F073FB78647B6CB3F1FF3F14BF72
:1024B00001230023DBB2002B25D007F12C007B6C1D
:1024C0000022796804F0F2FB07F12C0207F11403F3
:1024D0001146184604F0B3FA07F12C03184604F02D
:1024E000A8FA07F114031946F86800F0E9F938680A
:1024F00004F0D2FA02467B6C13441A460021786835
:1025000004F0F4FACAE700BF07F11403184604F018
:1025100090FA09E007F11403184604F08AFAF86803
:1025200000F0B3F904F097F8F8684837BD4680BD6D
:1025300080B584B000AF786039600023FB603868F4
:1025400004F0AAFA0246FB68934234BF0123002339
:10255000DBB2002B19D0F968386804F09FFA034603
:102560001B7819467868FFF776FF0346BB60BB68A7
:10257000B3F1FF3F05D10F4805F00EFB4FF0FF33DD
:1025800014E0FB680133FB60D9E7386804F0CCFA4B
:1025900003461946084805F0FFFA0D217868FFF751
:1025A0005AFF0A217868FFF756FF002318461037B4
:1025B000BD4680BD98AB0000A8AB00000EB4B0B51E
:1025C000A1B000AF7860002387F87E3007F13403B4
:1025D000184604F02EF907F1340207F118039D495B
:1025E000184604F02FFB07F13403184604F022F9D3
:1025F00007F198037B6107F1300319467868FFF70C
:10260000F3FE034687F877303B6BB3F1FF3F03D10E
:10261000012387F87E3032E097F8772007F118031E
:102620001146184604F05BFA07F11803184604F047
:102630007BFA03468849184605F080FB0346002BC9
:1026400014BF01230023DBB2002B03D0002387F843
:102650007F3014E007F11803184604F065FA0346CA
:102660007E49184605F06AFB0346002B14BF012380
:102670000023DBB2002BBED0012387F87F3007F1A7
:102680001803184604F050FA03461946744805F03A
:1026900083FA97F87E30002B02D0724805F07CFA5E
:1026A00097F87F30002B02D06F4805F075FA97F845
:1026B0007E30002B03D197F87F30002B01D000240F
:1026C0009AE0D7F8940004F0DFF90546D7F89400B3
:1026D00004F0DCF90146252387F8373007F137038A
:1026E0001A46284600F012F903463B673B6F002B61
:1026F00067D007F1180207F138031146184604F0B5
:102700006FFA07F16803184604F093F807F16802BE
:1027100007F150035549184604F094FA07F10800F0
:1027200007F1500307F138027968FFF7A6FE07F1B9
:102730005003184604F07DF907F16803184604F0C9
:1027400079F807F13803184604F073F90023BB67E2
:1027500007F10803184600F0EDF80246BB6F9342FC
:1027600034BF01230023DBB2002B21D007F1080383
:10277000B96F184600F0F4F80346184604F0D4F98F
:102780000546D7F8940004F0CFF903467A69194654
:10279000284605F011FB0346FB66FA6E3B6F9A4232
:1027A00002D10124002504E0BB6F0133BB67CFE7F2
:1027B000012507F10803184600F067F8012D19D02C
:1027C0001AE007F11803184604F0AEF90446D7F8EA
:1027D000940004F0A9F903461946204605F0AEFA24
:1027E0000346002B14BF01230023DBB2002B02D0D1
:1027F000012401E000BF002407F11803184604F08B
:1028000018F923461EE007F13403184604F012F8C5
:1028100003F021FF07F15003184604F00AF9FFE71F
:1028200007F16803184604F005F807F13803184665
:1028300004F0FFF8FFE707F11803184604F0F9F871
:1028400003F009FF18468437BD46BDE8B04003B029
:10285000704700BFACAB0000B0AB0000B4AB0000F1
:10286000BCAB000098AB0000C4AB0000D0AB0000D4
:1028700080B582B000AF78607B68184600F08EF8B3
:102880007B6818460837BD4680BDB0B582B000AF42
:1028900078607B681C687B685D687B68184600F020
:1028A000ABF803461A462946204600F0AFF87B688D
:1028B000184600F081F87B6818460837BD46B0BD61
:1028C00080B582B000AF786039607B685A687B68F9
:1028D0009B689A420DD078687B685B683A681946B5
:1028E00000F0ACF87B685B6803F118027B685A6003
:1028F00008E0786800F0B5F803463A681946786849
:1029000000F0C0F800BF0837BD4680BD80B584B078
:1029100000AFF860B9607A60786800F079F9034632
:102920001A46B968F86800F082F90346184610376D
:10293000BD4680BD80B483B000AF78607B685B68C3
:102940001A467B681B68D31ADB10044A02FB03F3A8
:1029500018460C37BD4680BC704700BFABAAAAAA78
:1029600080B483B000AF786039607B6819683A68DA
:1029700013465B001344DB000B4418460C37BD467E
:1029800080BC704780B582B000AF7860786800F096
:102990008CF97B6818460837BD4680BD80B582B08B
:1029A00000AF78607B68184600F06AF97B681846CB
:1029B0000837BD4680BD000080B582B000AF7860AA
:1029C0007B6819687B689B681A467B681B68D31A0A
:1029D000DB10084A02FB03F31A46786800F071F92D
:1029E0007B681846FFF7CEFF7B6818460837BD4660
:1029F00080BD00BFABAAAAAA80B483B000AF786044
:102A00007B6818460C37BD4680BC704780B584B0E3
:102A100000AFF860B9607A60B968F86800F064F9EE
:102A200000BF1037BD4680BD80B483B000AF786072
:102A30007B6818460C37BD4680BC704780B584B0B3
:102A400000AFF860B9607A607868FFF7EDFF034681
:102A50001A46B968F86800F054F900BF1037BD464F
:102A600080BD80B584B000AF78607B681A1D07F127
:102A70000C031146184600F065F9FB68184610373C
:102A8000BD4680BDB0B58AB000AFF860B9607A606D
:102A90005D4A0121F86800F064F903463B62F8687A
:102AA00000F0A7F903467B6107F1140207F1080360
:102AB0001146184600F0AEF90346FB61FB68396A1F
:102AC000184600F0C3F90346BB61BB697B62FC6832
:102AD000FA6913465B001344DB001A46BB699D1874
:102AE0007868FFF7A1FF03461A4629462046FFF7FC
:102AF000A5FF00237B62FB681C6807F108031846EA
:102B000000F0B8F903461D68FB681846FFF774FF2C
:102B10000346BA692946204600F0B6F903467B62AF
:102B20007B6A18337B6207F10803184600F0A2F9AC
:102B300003461C68FB685D68FB681846FFF75CFF8E
:102B400003467A6A2946204600F09EF903467B62D6
:102B5000FB681C68FB685D68FB681846FFF74CFF64
:102B600003461A4629462046FFF750FFF868FB68DF
:102B70001968FB689B681A46FB681B68D31ADB1050
:102B8000224A02FB03F31A4600F09BF8FB68BA697D
:102B90001A60FB687A6A5A603A6A13465B0013440B
:102BA000DB001A46BB691A44FB689A6029E00346B9
:102BB000184603F0D6FC7B6A002B0CD1F868FA6942
:102BC00013465B001344DB001A46BB6913441946E5
:102BD00000F073F909E0FB681846FFF70DFF0346A4
:102BE0001A46796AB869FFF711FFFB683A6AB96952
:102BF000184600F066F803F0E5FD03F0DCFC03F096
:102C00002AFD2837BD46B0BDD4AB0000ABAAAAAAA6
:102C100080B584B000AF786007F10C03796818467E
:102C200000F058F9FB6818461037BD4680BD80B5E6
:102C300086B000AFF860B9607A6000237B6107F16D
:102C4000080207F10C031146184600F051F903463B
:102C5000002B10D03B1DF968184600F070F90346B0
:102C6000002B02D07B6901337B6107F10C0318460E
:102C700000F056F9E3E77B6918461837BD4680BD7A
:102C800080B582B000AF7860786800F06FF97B683B
:102C900000221A607B6800225A607B6800229A60DA
:102CA0007B6818460837BD4680BD80B582B000AF4E
:102CB0007860786800F066F97B6818460837BD468A
:102CC00080BD80B584B000AFF860B9607A60BB6841
:102CD000002B05D0FB687A68B968184600F05CF9EB
:102CE00000BF1037BD4680BD80B582B000AF7860B0
:102CF00039603968786800F068F900BF0837BD4668
:102D000080BDF0B585B000AFF860B9607A607868D2
:102D1000FFF78AFE0646BD6829461820FFF70BFB21
:102D20000446002C0AD03146204603F059FF05E046
:102D300029462046FFF70AFB03F08DFC00BF14373D
:102D4000BD46F0BD80B483B000AF786039603B68A9
:102D50001A687B681A607B6818460C37BD4680BCD1
:102D6000704790B587B000AFF860B9607A60F868D6
:102D700000F043F90446F868FFF7DCFD0346E21A69
:102D8000BB689A4234BF01230023DBB2002B03D07F
:102D90007B68184603F0A4FFF868FFF7CBFD0446F4
:102DA000F868FFF7C7FD03463B6107F1080207F12A
:102DB00010031146184600F031F903461B682344FE
:102DC0007B61F868FFF7B6FD02467B69934206D344
:102DD000F86800F012F902467B69934204D9F8685A
:102DE00000F00BF9034600E07B6918461C37BD462E
:102DF00090BD80B584B000AF78607A6807F10C03AD
:102E000011461846FFF79EFFFB6818461037BD466F
:102E100080BD000090B583B000AF786039607868FD
:102E200000F028F803461B681C46386800F022F8BA
:102E300003461B68E31ADB10034A02FB03F3184640
:102E40000C37BD4690BD00BFABAAAAAA80B582B020
:102E500000AF786039603B68002B06D07B6839682A
:102E6000184600F0EEF8034600E000231846083745
:102E7000BD4680BD80B483B000AF78607B681846E3
:102E80000C37BD4680BC704790B585B000AFF86088
:102E9000B9607A603B60F86800F0E2F80446B86810
:102EA00000F0DEF801463B687A68204600F0E7F85B
:102EB000034618461437BD4690BD80B582B000AFBA
:102EC000786039603968786800F0EAF800BF083740
:102ED000BD4680BD80B483B000AF786039607B6848
:102EE0003A681A607B6818460C37BD4680BC70474C
:102EF00090B583B000AF78603960786800F0DCF896
:102F000003461C68386800F0D7F803461B689C42EB
:102F100014BF01230023DBB218460C37BD4690BD19
:102F200080B483B000AF78607B681B685A1C7B68F4
:102F30001A607B6818460C37BD4680BC704780B568
:102F400082B000AF786039603B46184600F0BEF8AA
:102F500003461A787B681B681B789A420CBF0123D2
:102F60000023DBB218460837BD4680BD80B582B06D
:102F700000AF7860786800F0B4F87B6818460837CE
:102F8000BD4680BD80B483B000AF78607B681846D2
:102F90000C37BD4680BC704780B584B000AFF86088
:102FA000B9607A607A68B968F86800F0A4F800BF80
:102FB0001037BD4680BD80B483B000AF78607B68B9
:102FC00018460C37BD4680BC704780B582B000AF54
:102FD000786039607A683B689A420AD07868FFF76F
:102FE000EAFF0346184600F093F87B6818337B60CD
:102FF000F0E700BF0837BD4680BD80B582B000AFA6
:1030000078607B68184600F09AF80346184600F08E
:103010008AF8034618460837BD4680BD80B483B0A1
:1030200000AF786039607B681A683B681B689A4219
:1030300001D23B6800E07B6818460C37BD4680BC77
:10304000704780B582B000AF78603960002239687F
:10305000786800F07EF8034618460837BD4680BD04
:1030600080B584B000AF786007F10C03796818462A
:1030700000F090F8FB6818461037BD4680BD80B55B
:1030800084B000AFF860B9607A603B607A68B96874
:10309000F86800F08DF8034618461037BD4680BD2D
:1030A00080B582B000AF78603960386803F0C1FC49
:1030B00000BF0837BD4680BD80B483B000AF7860E4
:1030C0007B6818460C37BD4680BC704780B483B01F
:1030D00000AF78607B681B6818460C37BD4680BC23
:1030E000704780B483B000AF78607B6818460C37B7
:1030F000BD4680BC704780B584B000AFF860B96051
:103100007A60B86802F029FF00BF1037BD4680BD65
:1031100080B582B000AF7860786803F08AFC00BFA9
:103120000837BD4680BD80B582B000AF7860786852
:1031300000F050F8034618460837BD4680BD80B4FD
:1031400083B000AF78607B6818460C37BD4680BC02
:10315000704780B584B000AFF860B9607A60F868F5
:1031600000F038F80246BB6893428CBF012300236D
:10317000DBB2002B01D003F0ADFDBA6813465B0053
:103180001344DB00184602F0D7FE034618461037FA
:10319000BD4680BD80B483B000AF786039607B6885
:1031A0003A681A607B6818460C37BD4680BC704789
:1031B00080B586B000AFF860B9607A600123FB7516
:1031C0007A68B968F86800F011F8034618461837AD
:1031D000BD4680BD80B483B000AF7860024B184616
:1031E0000C37BD4680BC7047AAAAAA0A90B587B022
:1031F00000AFF860B9607A607B687B6107F1080214
:1032000007F10C031146184600F02EF80346002B78
:1032100016D07869FFF7CFFE044607F10C03184675
:1032200000F043F803461946204600F053F807F132
:103230000C03184600F029F87B6918337B61DDE741
:103240007B690DE00346184603F08BF979697868CD
:10325000FFF74AFD03F0B6FA03F0ADF903F0FBF90E
:1032600018461C37BD4690BD80B582B000AF78606F
:1032700039603968786800F046F8034683F0010346
:10328000DBB218460837BD4680BD80B483B000AFBE
:1032900078607B681B6803F118027B681A607B68A2
:1032A00018460C37BD4680BC704780B483B000AF71
:1032B00078607B681B6818460C37BD4680BC704739
:1032C00080B483B000AF78607B6818460C37BD4689
:1032D00080BC704790B583B000AF786039603868C3
:1032E000FFF7EEFF04467B6819461820FFF723F826
:1032F0000346002B03D02146184603F080FB00BF95
:103300000C37BD4690BD90B583B000AF7860396092
:10331000786800F00EF80446386800F00AF80346B2
:103320009C420CBF01230023DBB218460C37BD467C
:1033300090BD80B483B000AF78607B681B6818468E
:103340000C37BD4680BC704780B483B000AF0346E5
:103350003960FB7197F90730002B0CDB3B68DBB25F
:103360000E4A97F9071008465B01D9B213180A46AE
:1033700083F800230CE03B68DAB2094997F907307B
:10338000DBB203F00F03043B5201D2B20B441A76B6
:1033900000BF0C37BD4680BC704700BF00E100E0B5
:1033A00000ED00E080B582B000AF78607B68013B43
:1033B000B3F1807F01D301230FE00A4A7B68013B10
:1033C000536007214FF0FF30FFF7BEFF054B00228F
:1033D0009A60044B07221A60002318460837BD463E
:1033E00080BD00BF10E000E080B485B000AF786021
:1033F0000A4B1B68FB60094B1A68FB68D31A7A6892
:103400009A428CBF01230023DBB2002B00D0F2E7ED
:1034100000BF1437BD4680BC704700BF28020020A3
:1034200080B400AF044B1B680133034A136000BF34
:10343000BD4680BC704700BF2802002080B500AFA9
:103440000A48FDF749FC0246094BA3FB02239B09EE
:103450001846FFF7A7FF0346002B14BF01230023E4
:10346000DBB2002B00D000BE00BF80BD70000200A8
:10347000D34D621080B400AF024B1B681846BD46A6
:1034800080BC70472802002090B58BB000AF7860F8
:103490007B681846FEF764FF7C6807F12403184632
:1034A00003F0C7F907F1240207F10C03224918467B
:1034B00003F0C8FB07F10C0319462046FFF738F864
:1034C00007F10C03184603F0B4FA07F12403184679
:1034D00003F0B0F941F28830FFF786FF786800F01A
:1034E0002DF8786800F0ECF8786800F0ABF9034646
:1034F00083F00103DBB2002B04D04FF4FA60FFF736
:1035000073FFF1E74FF47A70FFF76EFF786800F011
:1035100003FA7B680CE007F10C03184603F089FA04
:10352000FFE707F12403184603F084F903F093F84A
:1035300018462C37BD4690BDF0AB000090B59FB04B
:1035400000AF78607C6807F12003184603F071F93A
:1035500007F1200207F108035649184603F072FBF1
:1035600007F1080319462046FEF7E2FF07F10803BA
:10357000184603F05EFA07F12003184603F05AF9E3
:103580007C6807F13C03184603F053F907F13C024D
:1035900007F124034849184603F054FB07F12403BC
:1035A00019462046FFF70AF807F12403184603F0EE
:1035B00040FA07F13C03184603F03CF94FF47A70E7
:1035C000FFF712FF7C6807F15803184603F031F942
:1035D00007F1580207F140033849184603F032FB5F
:1035E00007F1400319462046FEF7A2FF07F140030A
:1035F000184603F01EFA07F15803184603F01AF9AB
:103600007C6807F17403184603F013F907F174029C
:1036100007F15C032849184603F014FB07F15C032B
:1036200019462046FEF7CAFF07F15C03184603F06F
:1036300000FA07F17403184603F0FCF84FF47A70AF
:10364000FFF7D2FE33E007F10803184603F0F1F963
:10365000FFE707F12003184603F0ECF802F0FBFF48
:1036600007F12403184603F0E4F9FFE707F13C03F0
:10367000184603F0DFF802F0EEFF07F140031846AA
:1036800003F0D7F9FFE707F15803184603F0D2F823
:1036900002F0E1FF07F15C03184603F0CAF9FFE707
:1036A00007F17403184603F0C5F802F0D4FF7C3725
:1036B000BD4690BDF8AB000004AC000008AC0000B3
:1036C00090B59FB000AF78607C6807F12003184682
:1036D00003F0AFF807F1200207F108035649184636
:1036E00003F0B0FA07F1080319462046FEF720FF61
:1036F00007F10803184603F09CF907F12003184668
:1037000003F098F87C6807F13C03184603F091F841
:1037100007F13C0207F124034849184603F092FAE6
:1037200007F1240319462046FEF748FF07F124035A
:10373000184603F07EF907F13C03184603F07AF8C7
:103740004FF47A70FFF750FE7C6807F15803184673
:1037500003F06FF807F1580207F1400338491846A3
:1037600003F070FA07F1400319462046FEF7E0FE29
:1037700007F14003184603F05CF907F158031846B7
:1037800003F058F87C6807F17403184603F051F809
:1037900007F1740207F15C032849184603F052FA56
:1037A00007F15C0319462046FEF708FF07F15C03AA
:1037B000184603F03EF907F17403184603F03AF88F
:1037C0004FF47A70FFF710FE33E007F10803184654
:1037D00003F02FF9FFE707F12003184603F02AF85A
:1037E00002F039FF07F12403184603F022F9FFE73E
:1037F00007F13C03184603F01DF802F02CFF07F117
:103800004003184603F015F9FFE707F1580318467F
:1038100003F010F802F01FFF07F15C03184603F0F5
:1038200008F9FFE707F17403184603F003F802F004
:1038300012FF7C37BD4690BD24AC000004AC0000F4
:1038400038AC000090B591B000AF78607C6807F1AB
:103850002003184602F0EDFF07F1200207F10803EC
:103860002B49184603F0EEF907F1080319462046E4
:10387000FEF75EFE07F10803184603F0DAF807F1D9
:103880002003184602F0D6FF7C6807F13C03184677
:1038900002F0CFFF07F13C0207F124031D4918464F
:1038A00003F0D0F907F1240319462046FEF786FEFF
:1038B00003461C4607F12403184603F0BAF807F143
:1038C0003C03184602F0B6FF002C01D001231BE098
:1038D000002319E007F10803184603F0AAF8FFE7F0
:1038E00007F12003184602F0A5FF02F0B4FE07F12D
:1038F0002403184603F09DF8FFE707F13C03184640
:1039000002F098FF02F0A7FE18464437BD4690BD6E
:1039100048AC000054AC000090B591B000AF7860A6
:103920007C6807F12003184602F083FF07F12002AC
:1039300007F108032A49184603F084F907F1080340
:1039400019462046FEF7F4FD07F10803184603F078
:1039500070F807F12003184602F06CFF7C6807F14D
:103960003C03184602F065FF07F13C0207F124030F
:103970001C49184603F066F97B681A1D07F12403F9
:1039800019462046FEF71AFE07F12403184603F0F5
:1039900050F807F13C03184602F04CFF4FF47A70E0
:1039A000FFF722FD19E007F10803184603F041F87C
:1039B000FFE707F12003184602F03CFF02F04BFE40
:1039C00007F12403184603F034F8FFE707F13C033E
:1039D000184602F02FFF02F03EFE4437BD4690BD70
:1039E00060AC00007CAC000090B5E5B004AF3B1DBE
:1039F00018603B4619603B46186803F095F8C7F815
:103A000074013B46186803F045F80346C7F838319F
:103A10000023C7F87C310023C7F87831D7F8383154
:103A2000D7F87C219A4219D207F10802D7F87831E9
:103A3000D018D7F87421D7F87C3113441B781A4674
:103A4000474904F049F9D7F87C310133C7F87C3194
:103A5000D7F878310233C7F87831DFE73B1D1B68B0
:103A60005C683B46186803F015F8024607F16C00E5
:103A700007F108030393029240F2D2430193394BBA
:103A800000932346384AC82104F0F2F83B1D1C6815
:103A900007F5AA73184602F0CCFE07F5AA7207F1E3
:103AA0006C0107F59E73184603F0CCF807F59E737A
:103AB00019462046FEF73CFD07F59E73184602F0B6
:103AC000B8FF07F5AA73184602F0B4FE3B1D1C6848
:103AD00007F5B873184602F0ACFE07F5B87207F5A3
:103AE000AC732249184603F0ADF807F59C7307F54F
:103AF0009A7207F5AC712046FEF760FD07F5AC73CE
:103B0000184602F096FF07F5B873184602F092FEC9
:103B1000D7F83831D7F834211946154804F03CF865
:103B200019E007F59E73184602F083FFFFE707F5DB
:103B3000AA73184602F07EFE02F08DFD07F5AC7305
:103B4000184602F076FFFFE707F5B873184602F053
:103B500071FE02F080FD07F5C277BD4690BD00BF43
:103B600080AC0000A4AC000088AC0000B4AC000045
:103B7000BCAC0000B0B588B000AF78607B681F4A6D
:103B80001A6001211E48FDF73FF87B681B4A1A6046
:103B90001C4B07F108041D460FCD0FC495E8030028
:103BA00084E803004FF416533B610023FB600023BD
:103BB0003B727B681B6807F1080211461846FEF746
:103BC000FDF97B681B6840F203125A650123042249
:103BD00000210320FDF722FC002301220121032004
:103BE000FDF71CFC7B681B6805211846FEF7AEF943
:103BF0007B6818462037BD46B0BD00BF00C40040FA
:103C000000120400E4AC000080B58CB000AFF86096
:103C1000B9607A600023FB620023BB6200237B62F1
:103C20000023FB61FB6A092B00F39D80FB681B6886
:103C30001846FEF77FFA0346FB76FB7E7B61FB6A44
:103C4000092B6BD801A252F823F000BF753C00008D
:103C5000833C0000913C00009B3C0000AF3C000016
:103C6000BD3C0000D13C0000DB3C0000E53C000016
:103C7000053D00007B69AA2B4BD04FF0FF33FB6260
:103C800047E07B69C02B46D04FF0FF33FB6242E038
:103C90007B697B627B693B6240E07B691B027A6ADD
:103CA00013447B623A6A7B6913443B6236E07B696A
:103CB000BB623A6A7B6913443B622FE07B691B025B
:103CC000BA6A1344BB623A6A7B6913443B6225E0DB
:103CD0003A6A7B6913443B6220E03A6A7B69134489
:103CE0003B621BE03B6A5A42DBB2D2B258BF53423E
:103CF0007A699A4202D10123FB610FE04FF0FF3352
:103D0000FB620BE07B69AB2B07D04FF0FF33FB620C
:103D100003E000BF02E000BF00E000BFFB6A013328
:103D2000FB62FB6A0A2B7FF47DAFFB69012B7FF4FA
:103D300079AFB86A00F054FF03460D49184601F008
:103D400057F803461A46BB681A60786A00F048FFC5
:103D500003460749184601F04BF803461A467B68AC
:103D60001A60002300E0012318463037BD4680BDAD
:103D70000000204180B483B000AF78607B685B684E
:103D800018460C37BD4680BC704780B483B000AF86
:103D900078607B689B6818460C37BD4680BC7047CE
:103DA00080B483B000AF78607B68DB6818460C375E
:103DB000BD4680BC7047000090B587B000AF78600A
:103DC0007B68254A1A60254B07F108040FCB84E86D
:103DD0000F0001212248FCF717FF01233B7201234A
:103DE0007B7201230B2205210220FDF717FB012323
:103DF0000B2204210220FDF711FB7B681B680322C4
:103E00009A637B681B6807F1080211461846FDF7A4
:103E100039FC7B684FF000029A607B684FF000022B
:103E20005A607B684FF00002DA6002224FF48C4146
:103E3000786800F0CAF800221021786800F0C5F810
:103E40004FF47A60FFF7D0FA786800F00BF87B68DF
:103E500018461C37BD4690BD00A40040FCAC0000D5
:103E600000C2040080B58CB000AF786000237B6195
:103E700000233B610023FB60786800F091F8034663
:103E800083F00103DBB2002B40F0858003233B72FB
:103E900000237B7207F1080302221946786800F0BC
:103EA000F9F807F1180312221946786800F052F960
:103EB0000023FB62FB6A112B54D8FB6A102B4CD8F1
:103EC00001A252F823F000BF0D3F00000D3F00009B
:103ED0005B3F00000D3F00000D3F00005B3F000016
:103EE000273F0000273F00005B3F0000273F000006
:103EF000273F00005B3F0000413F0000413F0000C2
:103F00005B3F0000413F0000413F00007B691B0216
:103F10007B6107F11802FB6A13441B781A467B6920
:103F200013437B611AE0FB681B02FB6007F1180278
:103F3000FB6A13441B781A46FB681343FB600DE0D1
:103F40003B691B023B6107F11802FB6A13441B78B3
:103F50001A463B6913433B6100E000BFFB6A013333
:103F6000FB62A7E77B680C3307F1140104221846B3
:103F700003F0EFF87B68043307F10C0104221846C4
:103F800003F0E7F87B68083307F1100104221846B4
:103F900003F0DFF800E000BF3037BD4680BD00BF52
:103FA00080B584B000AF786040F20221786800F0FC
:103FB00050F80346FB81FB89012B01D1012300E06E
:103FC000002318461037BD4680BD80B586B000AFCF
:103FD00078600B467B8013463B8007F11403022276
:103FE0001946786800F016F90346FB757B881B12AA
:103FF000DBB23B737B88DBB27B733B881B12DBB28B
:10400000BB733B88DBB2FB73FB7D3B7407F10C0396
:1040100005221946786800F03DF800BF1837BD4604
:1040200080BD80B584B000AF78600B467B807B8814
:104030001B12DBB23B737B88DBB27B7307F10C0393
:1040400002221946786800F025F800BF1037BD46F7
:1040500080BD80B584B000AF78600B467B807B88E4
:1040600019467868FFF7DDFF0023BB8107F10C03D9
:1040700002221946786800F06DF83B7B1B021AB2E9
:104080007B7B1BB213431BB29BB218461037BD4655
:1040900080BD000080B58AB000AFF860B9601346FB
:1040A000FB80C2233B8201237B82BB687B61FB8850
:1040B0003B83FB681B6807F1100211461846FDF7A9
:1040C00047FD034687F8273097F92730012B32D177
:1040D000FB681B681846FDF70DFB034687F8273081
:1040E00097F927300533062BEED801A252F823F0BA
:1040F000254100002D4100000D4100001541000048
:104100001D410000C9400000C94000000C4803F0F8
:1041100043FD0FE00B4803F03FFD0BE00A4803F0BE
:104120003BFD07E0094803F037FD03E0084803F0D2
:1041300033FD00BFC8E700BF2837BD4680BD00BFC4
:104140000CAD000018AD000024AD00002CAD000047
:1041500038AD000080B58AB000AFF860B960134692
:10416000FB80C3233B8202237B82BB687B61FB888D
:104170003B83FB681B6807F1100211461846FDF7E8
:10418000E7FC034687F8273097F92730012B32D117
:10419000FB681B681846FDF7ADFA034687F8273021
:1041A00097F927300533062BEED801A252F823F0F9
:1041B000E5410000ED410000CD410000D541000087
:1041C000DD41000089410000894100000C4803F0F6
:1041D000E3FC0FE00B4803F0DFFC0BE00A4803F0C0
:1041E000DBFC07E0094803F0D7FC03E0084803F0D4
:1041F000D3FC00BFC8E700BF2837BD4680BD00BF65
:104200000CAD000018AD000024AD00002CAD000086
:1042100038AD000080B487B000AFF860B9601346D5
:10422000FB71FF23FB750023BB75BA7DFB799A42B6
:1042300022D2BB7DBA6813441A78FB7D5340FB75CC
:1042400000237B757B7D072B12D897F91730002B45
:1042500007DAFB7D5B005BB283F031035BB2FB7579
:1042600002E0FB7D5B00FB757B7D01337B75E9E73D
:10427000BB7D0133BB75D8E7FB7D18461C37BD46B7
:1042800080BC704780B400AF034BDB6C1B0EDBB20D
:104290001846BD4680BC7047B081E00F80B582B043
:1042A00000AF0E4B01221A64FFF7ECFF0346FB71CF
:1042B0003B1D1846FDF7B6FDFB790F2B0AD93B795C
:1042C000022B07D9064B1B6823F05003044A43F026
:1042D0001003136000BF0837BD4680BD00000C40CE
:1042E000C0800C4080B483B000AF78607B6823F05E
:1042F000004318460C37BD4680BC704780B500AF00
:1043000001211B48FCF780FC01211120FCF77CFCFB
:1043100001211848FCF778FC01211548FCF774FCD2
:1043200001211548FCF770FC012201210220FCF755
:10433000BFFF012201210020FCF7BAFF0421112058
:10434000FCF764FE04210B48FCF760FE02210A48DA
:10435000FCF75CFE04210748FCF740FB01210748FD
:10436000FCF752FC01210648FCF74EFC00BF80BD63
:1043700000430200408104000300200000D204003A
:1043800090071A002DE9B04FADF52A7D0AAFFFF76F
:1043900085FFFDF7CAFFFFF7B1FFFFF74FF807F5FD
:1043A00008731846FFF7E6FB07F504731846FFF796
:1043B00003FD07F502731846FFF766F8FFF75AF892
:1043C0000346C7F87032FFF755F80346C7F86C325A
:1043D00007F5007207F5017107F508731846FFF736
:1043E00013FC0346C7F8683207F504731846FFF755
:1043F00039FDD7F86832002B40F05881D7F80432E5
:10440000D7F87C12184600F035FB03461846FFF734
:1044100069FFC7F86402D7F80032D7F87812184657
:1044200000F028FB03461846FFF75CFFC7F8600260
:1044300007F504731846FFF7B3FC0346D7F8741268
:10444000184600F017FB03461846FFF74BFFC7F866
:104450005C02D7F87C12D7F8640200F0C9FC03466E
:10446000A049184600F010FC03469F49184600F08A
:10447000C7FD0346002B25D1D7F87812D7F8600284
:1044800000F0B6FC03469749184600F0FDFB0346D2
:104490009549184600F0B4FD0346002B12D1D7F819
:1044A0007412D7F85C0200F0A3FC03468D4918464D
:1044B00000F0EAFB03468C49184600F0A1FD0346D4
:1044C000002B6AD0D7F80432184600F077FA044679
:1044D0000D46D7F80032184600F070FA804689463B
:1044E00007F504731846FFF75BFC0346184600F017
:1044F00065FA82468B4607F504731846FFF745FCBC
:104500000346184600F05AFAC7E9000107F504739C
:104510001846FFF72FFC0346184600F04FFA0246F4
:104520000B4607F10C00CDE90823D7E90023CDE9BC
:104530000623CDE904ABCDE90289CDE900456B4AFC
:104540004FF4FA7103F094FB07F50F73184602F06D
:1045500070F907F50F7207F10C0107F5097318469A
:1045600002F070FB07F5097207F502731146184651
:10457000FFF73AFA07F50973184602F05AFA07F5F9
:104580000F73184602F056F9FEF774FF0346C7F89A
:104590007032D7F87032C7F86C32D7F86C22D7F87F
:1045A0007032D31A524A93426AD9D7F80432184665
:1045B00000F004FA04460D46D7F80032184600F021
:1045C000FDF98046894607F504731846FFF7E8FBB6
:1045D0000346184600F0F2F982468B4607F504734D
:1045E0001846FFF7D2FB0346184600F0E7F9C7E983
:1045F000000107F504731846FFF7BCFB0346184695
:1046000000F0DCF902460B4607F10C00CDE9082367
:10461000D7E90023CDE90623CDE904ABCDE9028932
:10462000CDE90045314A4FF4FA7103F021FB07F55B
:104630001673184602F0FDF807F5167207F10C0123
:1046400007F51073184602F0FDFA07F5107207F52A
:10465000027311461846FFF7C7F907F5107318469D
:1046600002F0E7F907F51673184602F0E3F8FEF7D3
:1046700001FF0346C7F87032D7F87032C7F86C32C2
:10468000D7F80432C7F87C32D7F80032C7F878324E
:1046900007F504731846FFF783FB0346C7F8743227
:1046A000FEF7E8FE0346C7F86C3291E600BF8FE6DE
:1046B00007F50973184602F0BCF9FFE707F50F7319
:1046C000184602F0B7F801F0C6FF07F51073184658
:1046D00002F0AFF9FFE707F51673184602F0AAF8E3
:1046E00001F0B9FF0000C8420000F04248AD0000F0
:1046F000804F120081F0004102E000BF83F00043D0
:1047000030B54FEA41044FEA430594EA050F08BF6C
:1047100090EA020F1FBF54EA000C55EA020C7FEA30
:10472000645C7FEA655C00F0E2804FEA5454D4EBAD
:104730005555B8BF6D420CDD2C4480EA020281EA77
:10474000030382EA000083EA010180EA020281EAAF
:104750000303362D88BF30BD11F0004F4FEA013101
:104760004FF4801C4CEA113102D0404261EB410110
:1047700013F0004F4FEA03334CEA133302D0524296
:1047800063EB430394EA050F00F0A780A4F1010452
:10479000D5F1200E0DDB02FA0EFC22FA05F280188C
:1047A00041F1000103FA0EF2801843FA05F3594172
:1047B0000EE0A5F120050EF1200E012A03FA0EFCF1
:1047C00028BF4CF0020C43FA05F3C01851EBE3711B
:1047D00001F0004507D54FF0000EDCF1000C7EEB38
:1047E00000006EEB0101B1F5801F1BD3B1F5001F76
:1047F0000CD349085FEA30004FEA3C0C04F1010495
:104800004FEA445212F5800F80F09A80BCF1004FBD
:1048100008BF5FEA500C50F1000041EB045141EA3F
:10482000050130BD5FEA4C0C404141EB010111F440
:10483000801FA4F10104E9D191F0000F04BF0146EB
:104840000020B1FA81F308BF2033A3F10B03B3F1C9
:1048500020020CDA0C3208DD02F1140CC2F10C0259
:1048600001FA0CF021FA02F10CE002F11402D8BFB7
:10487000C2F1200C01FA02F120FA0CFCDCBF41EA83
:104880000C019040E41AA2BF01EB0451294330BD52
:104890006FEA04041F3C1CDA0C340EDC04F114042F
:1048A000C4F1200220FA04F001FA02F340EA030006
:1048B00021FA04F345EA030130BDC4F10C04C4F14C
:1048C000200220FA02F001FA04F340EA030029462C
:1048D00030BD21FA04F0294630BD94F0000F83F476
:1048E000801306BF81F480110134013D4EE77FEA59
:1048F000645C18BF7FEA655C29D094EA050F08BFA5
:1049000090EA020F05D054EA000C04BF1946104685
:1049100030BD91EA030F1EBF0021002030BD5FEAC9
:10492000545C05D14000494128BF41F0004130BDF1
:1049300014F580043CBF01F5801130BD01F0004545
:1049400045F0FE4141F470014FF0000030BD7FEAB8
:10495000645C1ABF194610467FEA655C1CBF0B46B3
:10496000024650EA013406BF52EA033591EA030FCA
:1049700041F4002130BD00BF90F0000F04BF0021C2
:10498000704730B54FF4806404F132044FF00005F5
:104990004FF0000150E700BF90F0000F04BF00216E
:1049A000704730B54FF4806404F1320410F00045D4
:1049B00048BF40424FF000013EE700BF42004FEACF
:1049C000E2014FEA31014FEA02701FBF12F07F434C
:1049D00093F07F4F81F06051704732F07F4208BF03
:1049E000704793F07F4F04BF41F40021704730B50A
:1049F0004FF4607401F0004521F000411CE700BF56
:104A000050EA010208BF704730B54FF000050AE0D8
:104A100050EA010208BF704730B511F0004502D5D9
:104A2000404261EB41014FF4806404F132045FEADB
:104A3000915C3FF4D8AE4FF003025FEADC0C18BF84
:104A400003325FEADC0C18BF033202EBDC02C2F176
:104A5000200300FA03FC20FA02F001FA03FE40EA08
:104A60000E0021FA02F11444BDE600BF80F00040C0
:104A700002E000BF81F0004142001FBF5FEA410336
:104A800092EA030F7FEA226C7FEA236C6AD04FEA36
:104A90001262D2EB1363C1BFD2184140484041407B
:104AA000B8BF5B42192B88BF704710F0004F40F42D
:104AB000000020F07F4018BF404211F0004F41F449
:104AC000000121F07F4118BF494292EA030F3FD015
:104AD000A2F1010241FA03FC10EB0C00C3F1200328
:104AE00001FA03F100F0004302D5494260EB4000B7
:104AF000B0F5000F13D3B0F1807F06D340084FEA22
:104B0000310102F10102FE2A51D2B1F1004F40EB16
:104B1000C25008BF20F0010040EA0300704749007E
:104B200040EB000010F4000FA2F10102EDD1B0FA49
:104B300080FCACF1080CB2EB0C0200FA0CF0AABF3E
:104B400000EBC25052421843BCBFD04018437047DC
:104B500092F0000F81F4000106BF80F400000132E2
:104B6000013BB5E74FEA41037FEA226C18BF7FEAB9
:104B7000236C21D092EA030F04D092F0000F08BFFB
:104B80000846704790EA010F1CBF0020704712F0E2
:104B90007F4F04D1400028BF40F00040704712F121
:104BA00000723CBF00F50000704700F0004343F086
:104BB000FE4040F4000070477FEA226216BF0846BC
:104BC0007FEA23630146420206BF5FEA412390EA7F
:104BD000010F40F4800070474FF0000304E000BF75
:104BE00010F0004348BF40425FEA000C08BF704726
:104BF00043F0964301464FF000001CE050EA0102EA
:104C000008BF70474FF000030AE000BF50EA0102FE
:104C100008BF704711F0004302D5404261EB4101EB
:104C20005FEA010C02BF84460146002043F0B64310
:104C300008BFA3F18053A3F50003BCFA8CF2083A35
:104C4000A3EBC25310DB01FA02FC634400FA02FC3E
:104C5000C2F12002BCF1004F20FA02F243EB020045
:104C600008BF20F00100704702F1200201FA02FCA7
:104C7000C2F1200250EA4C0021FA02F243EB02009A
:104C800008BF20EADC7070474FF0FF0C1CEAD052DE
:104C90001EBF1CEAD15392EA0C0F93EA0C0F6FD09F
:104CA0001A4480EA010C400218BF5FEA41211ED07D
:104CB0004FF0006343EA501043EA5111A0FB013169
:104CC0000CF00040B1F5000F3EBF490041EAD3713E
:104CD0005B0040EA010062F17F02FD2A1DD8B3F1BA
:104CE000004F40EBC25008BF20F00100704790F029
:104CF000000F0CF0004C08BF49024CEA502040EA7B
:104D000051207F3AC2BFD2F1FF0340EAC250704740
:104D100040F400004FF00003013A5DDC12F1190F7E
:104D2000DCBF00F000407047C2F10002410021FAF0
:104D300002F1C2F1200200FA02FC5FEA310040F108
:104D4000000053EA4C0308BF20EADC70704792F081
:104D5000000F00F0004C02BF400010F4000F013AB9
:104D6000F9D040EA0C0093F0000F01F0004C02BFB4
:104D7000490011F4000F013BF9D041EA0C018FE723
:104D80000CEAD15392EA0C0F18BF93EA0C0F0AD029
:104D900030F0004C18BF31F0004CD8D180EA01004F
:104DA00000F00040704790F0000F17BF90F0004FE8
:104DB000084691F0000F91F0004F14D092EA0C0FCA
:104DC00001D142020FD193EA0C0F03D14B0218BF5D
:104DD000084608D180EA010000F0004040F0FE40A3
:104DE00040F40000704740F0FE4040F4400070473F
:104DF0004FF0FF0C1CEAD0521EBF1CEAD15392EABE
:104E00000C0F93EA0C0F69D0A2EB030280EA010CAD
:104E100049024FEA402037D04FF0805343EA111146
:104E200043EA10130CF000408B4238BF5B0042F1A4
:104E30007D024FF4000C8B4224BF5B1A40EA0C0049
:104E4000B3EB510F24BFA3EB510340EA5C00B3EB7B
:104E5000910F24BFA3EB910340EA9C00B3EBD10F69
:104E600024BFA3EBD10340EADC001B0118BF5FEABB
:104E70001C1CE0D1FD2A3FF650AF8B4240EBC250E4
:104E800008BF20F0010070470CF0004C4CEA5020A5
:104E90007F32C2BFD2F1FF0340EAC250704740F4F4
:104EA00000004FF00003013A37E792F0000F00F0E6
:104EB000004C02BF400010F4000F013AF9D040EA64
:104EC0000C0093F0000F01F0004C02BF490011F4F8
:104ED000000F013BF9D041EA0C0195E70CEAD153F0
:104EE00092EA0C0F08D142027FF47DAF93EA0C0FD7
:104EF0007FF470AF084676E793EA0C0F04D14B02BB
:104F00003FF44CAF08466EE730F0004C18BF31F06C
:104F1000004CCAD130F000427FF45CAF31F0004366
:104F20007FF43CAF5FE700BF4FF0FF3C06E000BFFF
:104F30004FF0010C02E000BF4FF0010C4DF804CD22
:104F40004FEA40024FEA41037FEA226C18BF7FEA32
:104F5000236C11D001B052EA530C18BF90EA010F34
:104F600058BFB2EB030088BFC81738BF6FEAE170C3
:104F700018BF40F0010070477FEA226C02D15FEA5F
:104F8000402C05D17FEA236CE4D15FEA412CE1D0CB
:104F90005DF8040B704700BF844608466146FFE792
:104FA0000FB5FFF7C9FF002848BF10F1000F0FBD74
:104FB0004DF808EDFFF7F4FF0CBF012000205DF86D
:104FC00008FB00BF4DF808EDFFF7EAFF34BF0120F2
:104FD00000205DF808FB00BF4DF808EDFFF7E0FF8B
:104FE00094BF012000205DF808FB00BF4DF808EDDC
:104FF000FFF7D2FF94BF012000205DF808FB00BF3F
:105000004DF808EDFFF7C8FF34BF012000205DF820
:1050100008FB00BF03685A004CBF43F0004323F075
:1050200000431844704700BF61B32DE9F84F01F108
:10503000FF3A90460646D146002707EB090404EBE9
:10504000D4746410E50071190846FFF7E3FFA24528
:10505000834605F10800304409D0FFF7DBFFC34564
:1050600000F1FF3005D8404509D2671CE5E7C3458C
:1050700005D9A74202D004F1FF39DEE70021084636
:10508000BDE8F88F08467047012807D0022807D0EE
:10509000044B00280CBF1846002070470248704798
:1050A0000248704785570000895700008D5700005F
:1050B00030B5264B83B004468D1E4BB301A928465C
:1050C000AFF30080F0B101992A46FFF7ADFF01462A
:1050D000C0B1FFF79FFF4B68A064012B2FD0002BBE
:1050E00001F1040027DBFFF795FF0023C4E9130358
:1050F0000368002B13DBFFF78DFF002320611846A8
:1051000003B030BD092300221846226103B030BD30
:105110000F4B10491846C91AC9100191D4E7C3F3BF
:105120000360FFF7B1FF002814BF002309232061AB
:10513000184603B030BD0123C4E91303D8E70523A3
:1051400000221846226103B030BD00BF00000000FD
:1051500070B6000030B90000036810B5DA070446E5
:1051600006D49B0700F1480009D500F067FC2368CE
:10517000590709D51A070ED5DB0613D510BD00F067
:1051800055FC23685907F5D404F1D00000F05EFC0B
:1051900023681A07F0D404F5A87000F05FFC2368B8
:1051A000DB06EBD404F5E870BDE8104000F09ABCD3
:1051B000036803B103441846704700BF09207047D5
:1051C000704700BF70B504460D4608E02A6C23699D
:1051D000626121462A4601209847082808D1296C97
:1051E0002046FFF765FF06460028EFD001F045FF97
:1051F0000728FBD13046296CFFF7E2FF281D00F09D
:1052000009FC00BF2DE9F04705464FF0000CADF555
:10521000727D03AC0E1D17460FCE0FC40FCE0FC408
:105220000FCE0FC496E80F00D5F80C80D5F8189073
:1052300084E80F0002ACC4F800C021E0236C4FF4F6
:10524000F0726B6121467AA801F083FF2B697AAA7C
:10525000294630469847889BCDE9004982466364D9
:1052600031462B462A460120C0470746F8B94FF47D
:10527000F0727AA9204601F06CFFBAF1080F1CD138
:10528000216C2846FFF714FF002F08BF09260746A8
:1052900018BF0A260028D1D0A36B46F01001CDE933
:1052A00000492A46636401202B46C04700B1092704
:1052B00038460DF5727DBDE8F087BAF1070FF6D1DB
:1052C0003846216CFFF77CFF03A800F0A3FB00BF6A
:1052D000406C70474FF0FF3CF0B5CB6BF9B00B64FE
:1052E0000D1D01AC0F4606460FCD0FC40FCD0FC4E8
:1052F0000FCD0FC495E80F0084E80F00CDF800C073
:1053000006E033696A46314698470828044608D1C2
:1053100010993046FFF7CCFE0028F2D0092079B072
:10532000F0BD6846FFF718FF062CF7D13946304626
:10533000FFF748FF30B4DD6BC160826119461D6420
:10534000002230BC5EE700BF70B54369C6680B64DD
:10535000BEB903690A4604460D4601460220984735
:10536000072807D0082803D129462046FFF72AFF3F
:1053700001F083FE3046296CFFF722FF281D00F064
:1053800049FB0122FFF73EFF01F077FEC2682AB118
:1053900010B4CC6B00220C6410BC33E79AE700BF5A
:1053A000704700BF836813B101460120184770475A
:1053B000042907D8DFE801F00308060808000BB944
:1053C0000F2A03D9022070470120704700EB8200AA
:1053D00042681846009B1A60704700BF002310B552
:1053E00084B003AC0A4600941946FFF7E1FF039826
:1053F00004B010BD042907D8DFE801F0030806084F
:1054000008000BB90F2A03D902207047012070470A
:10541000009900EB8202096818465160704700BF8E
:10542000002310B584B004AC44F8042D00940A465F
:105430001946FFF7DFFF04B010BD00BF4FF0FF3C7F
:10544000F0B5D36BADF50F7D1364151D17AC074692
:105450000E460FCD0FC40FCD0FC40FCD0FC495E86E
:105460000F0084E80F00CDF858C012E00C2116A8F8
:105470006A46FFF7D5FF314616A8B84778B9049BAE
:1054800016AA6946082098470528044608D0092826
:1054900005D026996846FFF70BFE0028E6D00924C0
:1054A00016A8FFF759FE20460DF50F7DF0BD00BF91
:1054B0002DE9F04F0D46C96C89B00C1D164600F061
:1054C000030B0A681F460694002B68D00221130CB8
:1054D0008DF81D301204DBB204EB830405928DF8C5
:1054E0001C102B6DBBF1020F08BFAC6B13F0010356
:1054F00046D1019300F008030093D4F80090B9F16D
:10550000000F00F0F380022F45D0B4F80090B4F8FB
:1055100002800434AB6C28F0010A0F2130469A4413
:10552000FFF75CFF824534D829F0010353448342DE
:1055300094BF002001204FEA480808F0020809F053
:10554000010948EA0908B8F1010F3AD031D3B8F19E
:10555000020F1AD1236823F0004ABBF1000F66D175
:1055600030B1009A002A6CD0BAF1000F00F09080A0
:10557000002B00DA04340AF1010304EB8304BCE7D6
:10558000304605A900F048FB78B1092009B0BDE814
:10559000F08F0020CFE7D4F804800834BAE7032363
:1055A00012020592ADF81C309BE7082009B0BDE857
:1055B000F08FBBF1000F02D0002840F0B48004341B
:1055C0009BE7BBF1000F18D1A8B1D4E90023991CC7
:1055D0004FEAD272D9D005F158010133049100F09D
:1055E000B580201DFFF7E4FD04AB0146284601F01D
:1055F00055F8002867D108347FE70D213046D5F8EB
:105600002080FFF7EBFE8045F5D1AB6A9C42F2D1DA
:105610002046FFF7FFFC0F2102463046FFF700FF50
:1056200030462A460021FFF7FBFE0720AEE70D219A
:105630003046D5F82080FFF7D1FE804532D0236870
:1056400096E7BAF1000F23D005F1580304F10408DE
:10565000CDF808B0DDF80090A34603971C4602E0A1
:105660005745B94640D040460494FFF7A1FD04AB2E
:1056700001460022284601F011F809F1010708F15E
:1056800004080028ECD0D1455C46DDE902B7D6D14C
:1056900030460D21FFF7A2FE049B2862C5E90934BC
:1056A000062073E7AB6A9C42C9D104224FF0000880
:1056B000A318C5E90AA8C5E90C23236843454DDBB7
:1056C0000123019357E780460D213046FFF786FE00
:1056D000B8F1020F28623ED12B46049A43F82C2FD2
:1056E0006B62AC62062051E75C46D1E705A9304603
:1056F00000F092FA00287FF448AF019B002B3FF4A2
:1057000054AF0F213046FFF769FE0E2102463046A6
:10571000FFF786FE30461A4A0F21FFF781FE072069
:1057200009B0BDE8F08F2046FFF774FC043407464B
:10573000AC63284601F010F800283FF426AF30464D
:105740003A460F21FFF76CFE07201FE730460D2178
:10575000FFF744FE2862049B6B62C2E70AF1010076
:1057600004EB8000FFF756FC0F2102463046FFF79E
:1057700057FE30462A464146FFF752FE072005E70E
:10578000F1640000002393E6012391E602238FE6F3
:105790002DE9F0410546C4B0042906D8DFE801F040
:1057A0004D2B05030900032B5FD0022044B0BDE858
:1057B000F081002BF9D1102AF7D82B68DC0600F114
:1057C000F68022AC20460192012600F095F90023D4
:1057D000A86B019A06FA03F1114203D00168043064
:1057E00044F823100133042BF4D1A863204600F0C1
:1057F00079F90020DAE7012B4FEA124697B254D02C
:10580000052BD2D106EB0708B8F1200FCDD80F2E0B
:1058100040F29B80B846002F40F0DD80AA6B0F2E2F
:10582000AA6340F2C080B8F1000F02D002A800F0D5
:105830000DF9002044B0BDE8F081002BB5D101275F
:10584000AC6B96B2281D07FA03F1314203F1010354
:1058500002D0216804340160102B00F10400F2D161
:1058600012F40050E5D1AC63A0E7160C97B2F3191F
:10587000102B9AD82B681A075FD422AC204600F070
:105880000FF904EBC601A86B4FB1034600EBC7004C
:105890001A680433834241F8042BF9D11846A863EF
:1058A000204600F0DBF8002080E7F219102A3FF6CE
:1058B0007CAF0F2E3FF679AF2A68D10708D528466E
:1058C00022F0030240F8482B019300F0B3F8019B4B
:1058D00022AC2046019300F0ADF8A96B019B002F8C
:1058E00000F095804FF000087A0004EBC604043CF9
:1058F00001EB820251F8040B914244F8040FF9D1F4
:10590000B8F1000F0FD002AC102E314638BF102175
:1059100004EBC101843902EBC80452F8040B944231
:1059200041F8040FF9D1012B7FF479AF22AC043296
:10593000AA63204600F07AF87BE723F008032B6087
:1059400005F5A87000F0ACF897E7B8F1100F2A68D9
:1059500043D9D007A8F110080BD5284622F0010240
:1059600042F0020240F8482B019300F06BF82A68DD
:10597000019B510725D40F2E04D822A8019300F0D3
:1059800061F8019B02AC2046019300F063F8C6F178
:1059900010000028AA6B019BB6DD22AC114604EB77
:1059A000C6044200A3E722A800F048F83BE723F032
:1059B00010032B6005F5E870019200F09DF8019A44
:1059C000FFE6284622F0040240F8D02B019300F0B5
:1059D00041F8019BCFE72A68CBE7D0070AD52846D4
:1059E00022F0010242F0020240F8482B019300F03D
:1059F00029F8019B22AC20460193B84600F022F81A
:105A0000A96B019B002F7FF46DAF0A4607E70A469A
:105A10008DE700BF00F1340191E838009C46A646AE
:105A20004CF8045D90E8FF0FE54600BD90EC210BBB
:105A3000704700BF80EC210B704700BF90EC200B3B
:105A4000704700BF80EC200B704700BFD0EC200BEC
:105A5000704700BFC0EC200B704700BFF0EC0201A4
:105A6000F0EC0211F0EC0221F0EC0231F0EC02411A
:105A7000F0EC0251F0EC0261F0EC0271F0EC02810A
:105A8000F0EC0291F0EC02A1F0EC02B1F0EC02C1FA
:105A9000F0EC02D1F0EC02E1F0EC02F1704700BF53
:105AA000E0EC0201E0EC0211E0EC0221E0EC02315A
:105AB000E0EC0241E0EC0251E0EC0261E0EC02714A
:105AC000E0EC0281E0EC0291E0EC02A1E0EC02B13A
:105AD000E0EC02C1E0EC02D1E0EC02E1E0EC02F12A
